:10000000000001203D020000950200009702000060
:10001000990200009B0200009D0200000000000009
:100020000000000000000000000000009F0200002F
:10003000A102000000000000A3020000A5020000D1
:10004000A9020000AB020000AD020000AF020000F8
:10005000B1020000B3020000C5060000B7020000B4
:10006000B9020000BB020000BD020000BF02000098
:10007000C1020000C3020000C5020000C702000068
:10008000C9020000CB020000CD020000CF02000038
:10009000D1020000D3020000D5020000D702000008
:1000A000D9020000DB020000DD020000DF020000D8
:1000B000E1020000E3020000A7020000A702000026
:1000C000E5020000E7020000E9020000EB02000088
:0C00D000ED020000EF020000F102000051
:1000DC00364937480A1A02D0072291438D463549D2
:1000EC0035480A1A06D00722914381F30988022267
:1000FC0082F3148831483249324A00F045F83248CC
:10010C003249334A00F040F832483349334A00F060
:10011C003BF833483349344A00F036F83348344915
:10012C00344A00F031F834483449354A00F02CF8A0
:10013C0034483549354A00F027F83548354900220E
:10014C0000F02DF834483549002200F028F83448E6
:10015C003449091A082903DB0022026004300160CB
:10016C00314A90471F482049884205D00268043024
:10017C0003B4904703BCF7E700208646EC4600200A
:10018C0000212A4A9047FEE7884207D0521A05D030
:10019C00037801300B700131013AF9D17047884274
:1001AC0002D002700130FAE7704700000000012015
:1001BC0000E000200000012000000120780B00006E
:1001CC000000002004000020F4020000F4020000F3
:1001DC00780B0000780B00000000002000000020CD
:1001EC00780B0000780B0000780B0000780B0000F7
:1001FC00780B0000780B0000780B0000780B0000E7
:10020C00780B00007C0B0000040000200400002090
:10021C00040000205000002050000020500000205E
:10022C00500000205020002061020000FD02000060
:10023C000F484FF00701884385460E4880470E480B
:10024C00016841F470010160BFF34F8FBFF36F8FF2
:10025C00FFF73EBF09480A490A4A884207D0521A9A
:10026C0005D0037801300B700131013AF9D1704798
:10027C0000000120AD08000088ED00E0780B0000C4
:10028C000000002000000020FEE7FEE7FEE7FEE78E
:10029C00FEE7FEE7FEE7FEE7FEE7FEE7FEE7FEE72A
:1002AC00FEE7FEE7FEE7FEE7FEE7FEE7FEE7FEE71A
:1002BC00FEE7FEE7FEE7FEE7FEE7FEE7FEE7FEE70A
:1002CC00FEE7FEE7FEE7FEE7FEE7FEE7FEE7FEE7FA
:1002DC00FEE7FEE7FEE7FEE7FEE7FEE7FEE7FEE7EA
:0802EC00FEE7FEE7FEE700BF9C
:1002F400112000F01BB9000007B500F07BF808B12D
:1003040000F026F80023ADF800308DF8023069467D
:10031400012311208DF8013000F0A4F808B100F099
:1003240017F8022203238DF8062001A9074A8DF845
:1003340004300D208DF8053000F008F908B100F004
:1003440007F801210D2000F075F9FEE7F502000021
:100354001FB50021039001AA44F20100019102910A
:1003640000F004F805B05DF804FB000072B6094B18
:100374001B68DB0700D500BEBFF34F8F0649074B50
:10038400CA6802F4E0621343CB60BFF34F8F00BF2F
:10039400FDE700BFF0ED00E000ED00E00400FA0529
:1003A40000F1804000F5C040002382B00360036880
:1003B4000193019B02B07047800000F1A040D0F887
:1003C400003723F44033C0F80037D0F8003743EA4D
:1003D4000141C0F800177047054B4FF0FF32072862
:1003E40043F8202084BF1B1883F83C20704700BFCB
:1003F4000400002010B5174C94F8493043BBFF218A
:10040400E2180133202B82F82410F9D10021C8B25C
:10041400FFF7E2FF01310929F9D1002104220E4836
:1004240000F074FB0D4BE02283F806234022C3F84E
:1004340080214FF4BE701A60FFF7B2FF084B4FF0F3
:100444000042C3F80423012384F84930002010BD7E
:10045400082010BD040000204900002000E100E055
:100464000060004030B52F4C231893F9242001324A
:1004740056D18A78002A4AD0002354F823500135F3
:100484004FEA83023ED1251802F1804202F5C042B0
:1004940085F82430002544F82350D2F810550B7801
:1004A4004C7825F498151B04240525F4F85504F418
:1004B400801403F44033C2F8105523430402D2F8E5
:1004C400105504F4F85423432B43C2F810354B78E9
:1004D400012B4FF0A0421ED18340C2F8083500F52D
:1004E400E0724FF0A043032143F8221020FA01F3F5
:1004F4000D4A00F0070101208840D15C0843D05424
:10050400002030BD0133082BB7D1042030BDFE22BA
:1005140083F82420DBE701238340C2F80C35DEE7AF
:10052400082030BD04000020490000204FF0A04105
:100534000122D1F8043502FA00F020EA0302034054
:10054400C1F80825C1F80C3570470000F0B5374DE7
:100554002B1893F92430002B65DA8E78C6F3400605
:10056400002E0BBF0823002309240824A34201D131
:100574000420F0BD55F82370013740D12F185CB228
:1005840087F8244045F8232016B92B4483F83C000F
:100594008B785A0713D4DE0733D5830003F1A043C5
:1005A400D3F8002722F00202C3F80027204EC20825
:1005B40000F007070123BB40B75C3B43B3548B787F
:1005C4000A7813F0020325D0A30003F1804303F556
:1005D400C0430002D3F8101521F4473121F44071CF
:1005E400C3F810151204D3F8101500F4F85002F4EF
:1005F400403210430843C3F810050020F0BD013316
:10060400B4E74A7800F5E0734FF0A046920046F84C
:100614002320CBE7083C2C4494F8440040EA82129F
:1006240084F84420E9E70820F0BD00BF040000205E
:100634004900002038B5204C251895F92420072AB4
:1006440018DD224492F83C309B09032B0DD14FF066
:10065400A043D3F81035C34013F0010F0CBF02219F
:100664000321BDE83840FFF7A7BE012B14BF0321C7
:100674000221F6E7D3B2072B1CD8930003F1804381
:1006840003F5C043D3F8100540F00100C3F810058A
:1006940002F14000800080B2FFF782FE51B195F96B
:1006A400243054F823302BB1012303FA02F2034B14
:1006B400C3F8042338BD00BF0400002000600040DC
:1006C4002DE9F04385B00024554A564E564D019409
:1006D4000121A2F5C04052F8043B012B80B206D19F
:1006E400D6F804330B4202D0FFF75AFE0C43AA4259
:1006F4004FEA4101EDD14D4B1B68012B0AD14FF458
:10070400BE70FFF74DFE4FF0A04344F00044D3F811
:100714001035019314F0FF0F2ED1002C71DA002351
:100724000293DFF80C814FF0FF330393012702AEED
:1007340098F94420531C64D0D2B222F0C00404A916
:100744004FEAD40E01EB0E0002F0070310F8041C6C
:1007540007FA03F3194254D008EB0401920991F902
:10076400241058F821501DBB032A4AD116F80E1044
:10077400194306F80E101DE02D4F012600253442C2
:1007840010D0AB0003F1804303F5C043D3F8100548
:10079400D3F8101557F8253023B1C1F30141C0F344
:1007A400042098470135082D4FEA4606E7D1B4E7FF
:1007B400032ADBD004F5E0714FF0A04E10F80C0CC6
:1007C4005EF821101842C1F3014105D0022918D165
:1007D400032A0DD1114604E0032912D1032A07D1BB
:1007E40002212046FFF7E8FD75B14FF0010902E050
:1007F4003DB14FF0000911462046A847B9F1000F5A
:1008040002D105B0BDE8F0834FF0A043019AD3F8BC
:1008140010359342F5D00193029B039388E700BF00
:100824000061004000600040206100407C610040A5
:1008340004000020094B1B78062B0CD1084B1B68C5
:100844001A0708D1074B186800F0F000A0F1300334
:100854005842584170470020704700BFE00F00F035
:10086400E40F00F0E80F00F00C4B1B78062B10D1BE
:100874000B4B1B681A070CD10A4B186800F0F003E5
:10088400302B08D000F0E000A0F14003584258415A
:100894007047002070470120704700BFE00F00F050
:1008A400E40F00F0E80F00F008B5FFF7DDFF28B112
:1008B4007F4B804A1B68C3F304231360FFF7BAFF1E
:1008C40010B17D4B7D4A1A60FFF7CEFF28B17C4BF7
:1008D4007C4A1B68C3F342331360FFF7ABFF20B1BC
:1008E400794AD36823F08073D360FFF7BDFF40B12A
:1008F4004FF080430022C3F80C21C3F81021C3F841
:100904003825FFF797FF10B1704B03221A60FFF7E9
:1009140091FF40B16E4B05221A6001229A670022B2
:100924009A603F225A606B4B1B78062B09D16A4BA5
:100934001B68190705D1694B1B6803F0F003502BA2
:1009440067D0FFF791FF28B1654B664A1B6803F037
:100954004F031360FFF788FF48B14FF08043D3F88B
:100964000024D20744BF6FF00102C3F800245E4B99
:100974001B68062B04D15D4B1B68062B00F091808D
:100984005B4AD2F8883043F47003C2F88830BFF36E
:100994004F8FBFF36F8F4FF01023D3F80022002A3C
:1009A40003DBD3F80432002B2FDA524B0122C3F8B5
:1009B4000425D3F80024002AFBD04FF0102215217F
:1009C400C2F80012D3F80024002AFBD04FF0102301
:1009D4001522C3F80422474B1A46D3F80014002901
:1009E400FBD00021C3F80415D2F80034002BFBD04F
:1009F400BFF34F8F3E49404BCA6802F4E062134391
:100A0400CB60BFF34F8F00BFFDE73C4B3C4A1A60FD
:100A140008BD4FF080523B4BD2F80414C3F82015A4
:100A2400D2F80814C3F82415D2F80C14C3F8281506
:100A3400D2F81014C3F82C15D2F81414C3F83015D6
:100A4400D2F81814C3F83415D2F81C14C3F840159E
:100A5400D2F82014C3F84415D2F82414C3F8481566
:100A6400D2F82814C3F84C15D2F82C14C3F8501536
:100A7400D2F83014C3F85415D2F83414C3F86015FE
:100A8400D2F83814C3F86415D2F83C14C3F86815C6
:100A9400D2F84014C3F86C15D2F84424C3F8702576
:100AA4004FE7194A136843F48063136068E700BF93
:100AB400240300104035014074C007400DF0ADBA66
:100AC400440200103C050040F0ED00E0A0050040A9
:100AD40010560040E00F00F0E40F00F0E80F00F0C3
:100AE40058020010E40E00403001001034010010E0
:100AF40000ED00E000E001400400FA0500000020E1
:100B04000090D00300C000403C1700408446002AF7
:100B14002DD010F0030F04D000F8011B013A26D0A9
:100B2400F7E7C9B241EA012141EA0141202A12D37F
:100B3400A2F120022DE9F0030B460C460D460E46A9
:100B44000F4688468946A0E8FA03203AFBD2BDE85E
:100B5400F00320320BD0042A05D340F8041B043AD6
:100B640005D0042AF9D200F8011B013AFBD16046F2
:040B7400704700BF07
:040B78000090D00316
:040000030000023DBA
:00000001FF
