:10000000000001203D020000950200009702000060
:10001000990200009B0200009D0200000000000009
:100020000000000000000000000000008504000047
:10003000A102000000000000A5040000A5020000CD
:1000400065180000AB020000AD020000AF02000026
:10005000B1020000B3020000BD1B0000B7020000A7
:10006000B9020000BB020000BD020000BF02000098
:10007000C1020000C3020000C5020000C702000068
:10008000C9020000A5050000CD020000CF0200005B
:10009000D1020000D3020000D5020000D702000008
:1000A000D9020000DB020000DD020000DF020000D8
:1000B000E1020000E3020000A7020000A702000026
:1000C000E5020000E7020000E9020000EB02000088
:0C00D000ED020000EF020000F102000051
:1000DC00364937480A1A02D0072291438D463549D2
:1000EC0035480A1A06D00722914381F30988022267
:1000FC0082F3148831483249324A00F045F83248CC
:10010C003249334A00F040F832483349334A00F060
:10011C003BF833483349344A00F036F83348344915
:10012C00344A00F031F834483449354A00F02CF8A0
:10013C0034483549354A00F027F83548354900220E
:10014C0000F02DF834483549002200F028F83448E6
:10015C003449091A082903DB0022026004300160CB
:10016C00314A90471F482049884205D00268043024
:10017C0003B4904703BCF7E700208646EC4600200A
:10018C0000212A4A9047FEE7884207D0521A05D030
:10019C00037801300B700131013AF9D17047884274
:1001AC0002D002700130FAE7704700000000012015
:1001BC0000E000200000012000000120AC21000024
:1001CC000000002004000020F4020000F4020000F3
:1001DC0090210000AC210000000000200000002055
:1001EC00902100009021000090210000902100003F
:1001FC00902100009021000090210000902100002F
:10020C00AB210000B02100000400002004000020FD
:10021C0004000020B8110020B8110020B8110020F3
:10022C00B8110020B831002061020000811D0000CF
:10023C000F484FF00701884385460E4880470E480B
:10024C00016841F470010160BFF34F8FBFF36F8FF2
:10025C00FFF73EBF09480A490A4A884207D0521A9A
:10026C0005D0037801300B700131013AF9D1704798
:10027C0000000120711E000088ED00E090210000BC
:10028C000000002000000020FEE7FEE7FEE7FEE78E
:10029C00FEE7FEE7FEE7FEE7FEE7FEE7FEE7FEE72A
:1002AC00FEE7FEE7FEE7FEE7FEE7FEE7FEE7FEE71A
:1002BC00FEE7FEE7FEE7FEE7FEE7FEE7FEE7FEE70A
:1002CC00FEE7FEE7FEE7FEE7FEE7FEE7FEE7FEE7FA
:1002DC00FEE7FEE7FEE7FEE7FEE7FEE7FEE7FEE7EA
:0802EC00FEE7FEE7FEE700BF9C
:1002F400044B1A5C012393404FF0A042C2F8083526
:10030400704700BF9021000008B50020FFF7F0FF00
:100314000120FFF7EDFF0220FFF7EAFF0320BDE80D
:100324000840FFF7E5BF0000074A4FF0A041105C0A
:10033400D1F804350122824022EA03001340C1F8B7
:100344000805C1F80C35704790210000C20708B5B4
:1003540001460CD54FF0A0430322C3F84427C3F849
:100364004827C3F84C27C3F85027FFF7CDFF8B0766
:100374000AD54FF0A0430C22C3F83427C3F838271A
:10038400C3F83C27C3F8402708BD000038B543072D
:1003940004461CBF20F00704083400F06BFD0C4B2E
:1003A4001A681AB90B4A22F007021A600A490A6845
:1003B40040F6F7701444844208D8A24206D21D685D
:1003C4000C60154400F0E2FD284638BD0025F9E72D
:1003D400040000201000002008100020704700F1E5
:1003E400080343604FF0FF32C3600361002382605F
:1003F4000360704700230361704743684B609A6849
:100404008A609A68516099600368086101330360E7
:1004140070470A68531C30B50AD103695A684A60A8
:1004240091608B605960036808610133036030BDDB
:1004340000F108035C682568AA42EFD32346F9E774
:100444004168826803698A60826851605968884299
:1004540008BF5A60002202611A68013A1A601868DB
:10046400704700000548006880F3088862B661B6EA
:10047400BFF34F8FBFF36F8F00DF00BF000000009A
:10048400064B19680868B0E8F04F80F30988BFF399
:100494006F8F4FF0000080F3118870472010002008
:1004A400EFF30980BFF36F8F144B1A681EF0100F1F
:1004B40008BF20ED108A20E9F04F10604DF8043D8C
:1004C4004FF0400080F31188BFF34F8FBFF36F8F5D
:1004D40000F024FE4FF0000080F3118808BC196876
:1004E4000868B0E8F04F1EF0100F08BFB0EC108A97
:1004F40080F30988BFF36F8F704700BF201000207E
:10050400402383F31188FEE74FF0807300E90A006B
:10051400054B40F80C3C6FF0020340F8202C40F8E7
:10052400243C4438704700BF050500000F4C08B553
:10053400E02384F8223000F06DF80D4B00221A609D
:10054400D4F888300B4A43F47003C4F888305368F5
:1005540043F040435360236943F010032361FFF7E2
:1005640081FF402383F31188FEE700BF00ED00E024
:100574000C10002030EF00E0402383F31188024A7E
:1005840013680133136070470C100020034A13688A
:10059400013B13600BB983F3118870470C100020E2
:1005A40073B5194B00221A601B680193019BEFF38A
:1005B4001186402383F31188144BD3F80445C3F800
:1005C400002103F580731B680093009B00F05AFC24
:1005D400241A24F07F44012C04D900F07FFE022861
:1005E40018BF0124002514F1FF3409D225B1084BAA
:1005F4004FF080525A6040BF86F3118802B070BD3C
:1006040000F04EFC0543EEE74011014000100140AC
:1006140000ED00E008B5002001F0A6F80A4B0B49F4
:100624001F22C3F808250122C3F804230A601A60B4
:100634000222C3F84423064BE02283F811234FF42B
:1006440000321A6008BD00BF0010014008100140CC
:1006540000E100E07FB5064672B6264CD4F8045596
:1006640000F022FE2346002841D0234CB44228BF88
:1006740034462A1922F07F420121C3F80813C3F833
:1006840040251E4A002111601168019101994FF41F
:100694008031C3F80413BFF34F8F3CB1184920BF16
:1006A400D1F80061D1F804013043F8D04FF480311F
:1006B400C3F808130021116012680392039A114AC7
:1006C400116012680292029A0122C3F80423D3F83B
:1006D40004355B1B23F07F40A042094B4FF40032EA
:1006E40028BF2046C3F8802108B100F0D1FB62B6D0
:1006F40004B070BD00100140FDFFFF004011014037
:1007040000E100E00011014010B50446FFF734FF9A
:10071400A46BFFF73BFFB4FA84F0400910BD70B539
:100724001546026C866B044642B905689DB940685B
:1007340000F0E4FD65600136A66370BD6DB98068A4
:1007440001F0C6FCA368226C13446268A360934260
:1007540001D32368A3600020EDE7C06801F0B8FC72
:10076400236CE26821685B421A448A42E2603EBF1D
:1007740062689B18E360022DEDD10EB1013EEAE7F9
:100784003046D8E7034610B41A6C084662B1D968FB
:100794005C681144A142D96024BF1968D960D96842
:1007A4005DF8044B01F094BC5DF8044B704770B5E0
:1007B4000446FFF7E1FE94F8455004F124066DB2B7
:1007C400002D14DCFF2384F84530FFF7DFFEFFF72C
:1007D400D3FE94F8445004F110066DB2002D12DCDF
:1007E400FF2384F84430BDE87040FFF7CFBE636A4E
:1007F400002BE7D0304600F0E3FC08B100F04EFDDA
:10080400013D6DB2DCE72369002BE9D0304600F0EE
:10081400D7FC08B100F042FD013D6DB2DEE70000F7
:1008240038B504460D46FFF7A7FE206CE36B22683B
:10083400A2604343D1181B1A13446160E360002192
:10084400FF23A16384F8443084F845309DB92369BB
:100854006BB104F1100000F0B3FC40B10A4B4FF04F
:1008640080525A6040BFBFF34F8FBFF36F8FFFF7C3
:100874008DFE012038BD04F11000FFF7B0FD04F136
:100884002400FFF7ACFDF2E700ED00E070B506468A
:10089400484348300D46FFF779FD044638B145B961
:1008A4002060E663256401212046FFF7B9FF204656
:1008B40070BD00F148030360F3E700002DE9FF4732
:1008C4000026DFF8ECA00192044689461F46B04694
:1008D400FFF752FEA26BE36B9A4201D3022F1AD1A7
:1008E4003A4649462046FFF71AFF636A1BB104F1F2
:1008F400240000F065FC40B12D4B4FF080525A604B
:1009040040BFBFF34F8FBFF36F8FFFF73FFE012050
:1009140004B0BDE8F087019D1DB9FFF737FE002044
:10092400F6E716B902A800F085FCFFF72FFE00F0E9
:10093400A1FAFFF721FE94F84430FF2B08BF84F896
:10094400448094F84530FF2B08BF84F84580FFF7B6
:100954001DFE01A902A800F079FC18BBFFF70CFEEC
:10096400A66BE56BFFF712FEAE4215D1019904F1B7
:10097400100000F001FC2046FFF719FF00F006FB11
:1009840040B94FF08053CAF8043040BFBFF34F8FD3
:10099400BFF36F8F01269BE72046FFF708FF00F0A7
:1009A400F5FAF7E72046FFF702FF00F0EFFAB6E7A3
:1009B40000ED00E0F8B505461746EFF31186402236
:1009C40082F31188806BEA6B904201D3022B1ED113
:1009D40095F845401A4664B22846FFF7A0FE631C0A
:1009E40010D16B6A0BB9012009E005F1240000F075
:1009F400E7FB0028F7D0002FF5D00120386086F3FC
:100A04001188F8BD013464B285F84540EBE7002055
:100A1400F5E700002DE9F04385B00026DFF8E49007
:100A24000192044688463746FFF7A6FDA56BDDB163
:100A340041462046013DFFF7A5FEA56323696BB13E
:100A440004F1100000F0BCFB40B12E4B4FF080527B
:100A54005A6040BFBFF34F8FBFF36F8FFFF796FD10
:100A6400012005B0BDE8F083019D1DB9FFF78EFD9F
:100A74000020F6E716B902A800F0DCFBFFF786FDBC
:100A840000F0F8F9FFF778FD94F84430FF2B08BF25
:100A940084F8447094F84530FF2B08BF84F84570FF
:100AA400FFF774FD01A902A800F0D0FBF8B92046B5
:100AB400FFF72AFEA8B1019904F1240000F05CFBC1
:100AC4002046FFF774FE00F061FA40B94FF08053FE
:100AD400C9F8043040BFBFF34F8FBFF36F8F0126B7
:100AE400A2E72046FFF763FE00F050FAF7E720463E
:100AF400FFF75DFE00F04AFA2046FFF705FE0028E6
:100B0400EDD0B5E700ED00E0054B1A6812B19A6824
:100B14002AB9012243F8321003EBC203586070472C
:100B24001010002070B504460D461646FFF724FD4C
:100B340094F84430FF2B04BF002384F8443094F825
:100B44004530FF2B04BF002384F84530FFF71EFD1A
:100B5400A36B2BB93246294604F1240000F01CFB98
:100B64002046BDE87040FFF722BE0000094B0A4A48
:100B74001B681268D06A58B9084A1268012A08D852
:100B8400012B06D8064B1868064B1B68C01A704721
:100B9400002070477C100020201000202C10002022
:100BA400AC100020F4100020064A13681968064BA4
:100BB40019B94FF0FF321A6070471268D268D268D0
:100BC4005268F8E724100020AC100020F8B51B4B45
:100BD4001B4E1D680446306804300F46FFF730FC96
:100BE400334640B93168174EC96A326801208840DB
:100BF40022EA00023260621C07D137B11968124838
:100C04000431BDE8F840FFF7F8BB2C441A68A5424C
:100C1400546007D90D4A10681968BDE8F8400431DA
:100C2400FFF7F7BB0A4A106819680431FFF7F1FBB4
:100C3400084B1A68944238BF1C60F8BDF4100020B9
:100C4400201000207C100020CC1000202810002050
:100C540024100020AC1000202DE9F84F4FEA820A3E
:100C6400804650460D4699460B9EFFF78FFB07467C
:100C7400002800F0A0804820FFF788FB04460028E5
:100C840000F0968052460763A521384601F04AFADF
:100C9400236BAAF1040A9A442AF0070A6B1E04F192
:100CA40034020335597802F8011B13F8011F09B106
:100CB400AB42F7D10A9D022D28BF02254FF0000B4D
:100CC400271DE562A563384684F837B0C4F83CB004
:100CD400FFF790FBC5F1030504F11800FFF78AFB49
:100CE400C4F840B02461A561646284F844B04A4603
:100CF40041465046FFF708FC206006B13460FFF718
:100D04003BFC344B344E1A68DFF8008101321A6020
:100D14003268002A52D134601B68012B1FD12F483E
:100D2400DFF8EC902E4DFFF75AFB2E48FFF757FBE8
:100D34002D48FFF754FB4846FFF751FB2846FFF7C1
:100D44004EFB2A48FFF74BFB2948FFF748FB29488D
:100D5400FFF745FB284BC3F80090284B1D60284A39
:100D640028491368086801331360E26A012505FA0B
:100D740002F303430B60194B142000FB0230394685
:100D8400FFF73BFBFFF702FCD8F800306BB1336888
:100D9400DA6AE36A9A4208D21B4B4FF080525A60D7
:100DA40040BFBFF34F8FBFF36F8F2846BDE8F88F66
:100DB4003846FFF713FB4FF0FF35F6E7D8F800305D
:100DC400002BCCD13368DA6AE36A9A4298BF346064
:100DD400C5E700BF68100020201000202C10002060
:100DE400941000204010002054100020B410002063
:100DF400E0100020CC100020241000202810002037
:100E0400781000207C10002000ED00E0C8100020C5
:100E14008010002013B5114B019300240094234645
:100E24003C220F490F48FFF717FF012813D100F0A8
:100E3400E7FA01280FD1402383F311880A4B4FF0BE
:100E4400FF321A60094B1860094B1C6002B0BDE800
:100E54001040FFF76BBB02B010BD00BFA81000200C
:100E6400942100009D100000AC100020C810002048
:100E7400F4100020024A136801331360704700BF66
:100E840074100020014B1868704700BFF410002054
:100E9400024A136818441060704700BFF410002021
:100EA4002DE9F84F2E4B1B6823BB2E4B1D680135D3
:100EB4001D605DB92C4A2D4B1168186810602C4ACE
:100EC4001960136801331360FFF76EFE294F3B6806
:100ED4009D424FF0000412D3DFF88C80DFF8A49019
:100EE400DFF8A4B0D8F800301B6883B94FF0FF33A3
:100EF4003B6004E0204A13680133136000241F4B55
:100F04001B68002B18BF01242046BDE8F88FD8F8D1
:100F14000030DB68DE6873689D42E9D306F1040A99
:100F24005046FFF78DFAB36A1BB106F11800FFF7BC
:100F340087FAF26AD9F800100123934014200B4376
:100F440000FB02B05146C9F80030FFF756FA0C4BCB
:100F5400F26A1B68DB6A9A4228BF0124C2E700BF19
:100F640074100020F4100020241000202810002009
:100F7400B0100020AC10002070100020F8100020E9
:100F8400201000207C1000202C1000202DE9F843B4
:100F9400FFF7F2FA2B4B1A68013A1A601C682CB15D
:100FA4000024FFF7F3FA2046BDE8F883264B1B68BC
:100FB400002BF5D0DFF8A890244FDFF8A880D9F8EB
:100FC4000030EBB90CB1FFF7EFFD214D2C6844B1B3
:100FD400204E0127FFF764FF00B13760013CF9D1CF
:100FE4002C601C4B1B68002BDAD01B4B4FF080523B
:100FF4005A6040BFBFF34F8FBFF36F8F0124D0E718
:10100400D9F80C30DC68261D04F11800FFF718FA33
:101014003046FFF715FAE26A3968012505FA02F34A
:1010240014200B4300FB028031463B60FFF7E5F9D7
:101034000A4BE26A1B68DB6A9A4224BF054B1D60B7
:10104400BDE700BF74100020681000207C10002051
:1010540070100020F810002000ED00E020100020A7
:10106400B41000202C10002008B548B9094B4FF0EB
:1010740080525A6040BFBFF34F8FBFF36F8F08BDDC
:10108400FFF7F8FE0021FFF7A1FDFFF77FFF00281F
:10109400ECD008BD00ED00E0F8B51B4C1B4F1C4E16
:1010A4002368DBB91B4B1B68012B08D91A4B4FF083
:1010B40080525A6040BFBFF34F8FBFF36F8FFFF76B
:1010C40055FD0128EBD9FFF7D5FEFFF74FFD0128A9
:1010D40001D9FFF7BFFAFFF759FFE0E7FFF74CFA32
:1010E400FB68DD68281DFFF7ABF93368013B33600B
:1010F4002368013B2360FFF749FA286BFFF76EF979
:101104002846FFF76BF9CBE76C100020E0100020B5
:10111400681000202C10002000ED00E0114B1A682C
:10112400114B30B512B101221A6030BD1A600F4B59
:101134000F491B68B3FA83F3C3F11F03142000FBA8
:1011440003F28C18083265686D6865600A4495423C
:1011540004BF6A68626000FB03135B68DA68054BCE
:10116400E2E700BF74100020F81000207C1000207B
:101174002C1000202010002010B5064B0C461968D6
:101184001831FFF746F920460121BDE81040FFF76A
:101194001DBD00BF2010002038B5084B0D4619684E
:1011A40014461831FFF729F9002C21460CBF2846B4
:1011B4004FF0FF30BDE83840FFF708BD2010002095
:1011C40038B5C368DC6804F118052846FFF738F918
:1011D400124B1B68F3B9251D2846FFF731F9104956
:1011E400E26A08680123934003430B600D4B14200B
:1011F400294600FB0230FFF700F90B4BE26A1B683B
:10120400DB6A9A4285BF094B012000201860FFF772
:10121400CBFC38BD29460648EDE700BF741000201A
:101224007C1000202C10002020100020F81000203A
:10123400B4100020034B1B680360034B1B6843601E
:10124400704700BFB0100020F410002070B50C46A9
:101254000546FFF791F90F4B1A682368591C0FD004
:101264000D482E6800686968864201D08A420ED211
:10127400521A9A4209D29B1A23602846FFF7DAFFD2
:101284000024FFF783F9204670BD00232360012466
:10129400F7E700BFF4100020B0100020014B01223A
:1012A4001A607047F8100020084B186860B9084BA2
:1012B4001B6853B9074B1868074B1B68013B9842DE
:1012C40014BF01200220704700207047B410002092
:1012D400F8100020CC10002068100020054B1B687B
:1012E40033B1054B1B68002B0CBF02200020704754
:1012F40001207047C810002074100020F8B504467F
:1013040008B90020F8BDC36BC16A826B013B9142EE
:10131400C363F6D0002BF4D1051D2846FFF790F8DF
:10132400104E114A50B9E76A1421794373582BB906
:1013340013680120B84023EA00031360A36BE3623F
:10134400C3F10301A1611168012404FA03F0084305
:101354001060142000FB03602946FFF74EF8204676
:10136400F8BD00BF2C1000207C100020F8B50F4CF5
:10137400FFF702F92568ADB90D4F0E4E3846FFF759
:101384002EF83046FFF72BF80B4B1F600B4B2A4609
:10139400102120201E60FFF779FA206010B108495F
:1013A400FFF7B2FBBDE8F840FFF7F0B830110020BA
:1013B4000411002018110020FC100020001100204E
:1013C40099210000914208B5416000610AD8D21AFF
:1013D40083699A420DD2084B011D1868FFF719F86A
:1013E400002008BD9A4201D2994202D2011D034B4A
:1013F400F3E7012008BD00BF00110020FC1000200D
:1014040007B5FFF7B3FF084B186848B1074B0193C2
:10141400022300935022002305490648FFF71CFCD1
:1014240003B05DF804FB00BF30110020341100202C
:101434009E210000E91400007FB50F4C054620688A
:1014440016461A4680B105298DE8420002950DDC46
:10145400FFF744FF0023022808BF089A206818BF3A
:101464001A466946FFF72AFA04B070BD002369469C
:10147400FFF7A0FAF8E700BF301100202DE9F3418F
:10148400164D4FF000082B681A6832B9144A1168D7
:101494002960136002B0BDE8F081DB68DC681E6877
:1014A400271D3846FEF7CCFF636A20469847E36958
:1014B400012BE8D1A36933449E4206D263602461C0
:1014C40039462868FEF7A5FFDDE70023CDF8008044
:1014D400324619462046FFF7AFFFD4E7FC10002040
:1014E400001100202DE9F04F5E4D87B04FF0010848
:1014F4002B68D3F800B0BBF1000F6DD0DB68D3F8D4
:101504000090594EFFF7B6FCFFF7BCFC33689842D5
:101514008246374662D2FFF7B1FF0124C6F800A025
:10152400524E002C77D1BBF1000F59D0D14570D861
:10153400FFF72CFD2B68DB68D3F80CB00BF104002B
:10154400FEF77EFFDBF81C30012B0FD1DBF81810FF
:101554004B46524649445846FFF734FF30B1009495
:1015640023464A4621465846FFF766FFDBF82430F7
:1015740058469847002202A93068FFF74BFA002822
:10158400B6D0029B002B03DA05990498039B984775
:10159400029B002BEEDB049C636913B1201DFEF754
:1015A4004FFFFFF76FFC3B689842814601D2FFF77B
:1015B40065FF029BC7F80090092BDBD808FA03F3F8
:1015C40013F4047A44D113F0C70F27D19B06D1D565
:1015D4002046FEF703FFCDE7D94692E700249DE7B6
:1015E400234B1B681A68B2FA82F25209A9EB0A016A
:1015F4003068FFF797FAFFF7C9FC0028BAD11D4BF2
:101604004FF080525A6040BFBFF34F8FBFF36F8FCC
:10161400B0E72246EAE7FFF7B9FCABE7A169039B11
:101624004A4619442046FFF7CDFE0028A2D0636A3B
:1016340020469847E369012B9CD1A2690399CDF810
:1016440000A00A44534651462046FFF7F5FE91E7B1
:101654000399A1614B464A4649442046FFF7B2FE2E
:1016640088E700BFFC1000202C110020301100205E
:101674000011002000ED00E01FB50021039001AA35
:1016840044F201000191029100F004F805B05DF804
:1016940004FB000072B6094B1B68DB0700D500BED3
:1016A400BFF34F8F0649074BCA6802F4E062134345
:1016B400CB60BFF34F8F00BFFDE700BFF0ED00E04C
:1016C40000ED00E00400FA0572B6024A1368013323
:1016D4001360704738110020034A1368013B1360FC
:1016E40003B962B6704700BF38110020FFF7ECBFA2
:1016F400FFF7F2BF38B5084C04F10803054600288B
:1017040018BF1C4623682BB11A6822605B68284600
:101714009847F7E738BD00BF4411002020B9054BB6
:1017240001225A70FFF7E6BF012802D1014A9070E6
:10173400F8E770473C11002038B5094C23786BB9A1
:1017440008486360A3602361E36000F041F8054644
:1017540000F04CF801232370284638BD8525FBE7AB
:101764003C1100202117000038B5134CA37805461E
:1017740003F0FF0073B115B16B6801209847002096
:10178400FFF7B4FFE3680133E3600020BDE83840AD
:10179400FFF7AEBFFFF7AAFF25B1226913463BB995
:1017A4002A602561E368002BECD100F033F8E9E707
:1017B4009D42F7D01B68F2E73C11002000F1804005
:1017C4000023036082B003680193019B02B0704759
:1017D400054A13792BB90121106011715371184610
:1017E40070478520704700BF50110020084B1A68CD
:1017F400D20706D4E02283F800230122C3F8802113
:101804001A604FF080430122C3F81825704700BFC7
:1018140000E100E038B54FF48270FFF7CFFF4FF0DE
:1018240080430222C3F804230A4AD06840F080733C
:10183400D360094B1C6844F0010119605D68596864
:10184400491BB1F50A5FFAD31C60044BD060012236
:101854001A6038BDF0ED00E0001000E00800004020
:10186400124B1B6810B573B14FF48070FFF7A6FFDD
:101874004FF080430122C3F808230D4B587910B967
:101884005A711B6898470B4B1B6873B14FF48270F5
:10189400FFF794FF4FF080430222C3F80823044B60
:1018A40001201B68BDE81040184710BD000100402E
:1018B400501100200401004000F1804000F5C040B8
:1018C400002382B0036003680193019B02B0704758
:1018D400800000F1A040D0F8003723F44033C0F872
:1018E4000037D0F8003743EA0141C0F800177047C9
:1018F400054B4FF0FF32072843F8202084BF1B1804
:1019040083F84820704700BF5811002010B5174CC9
:1019140094F8583043BBFF21E2180133202B82F89E
:101924003010F9D10021C8B2FFF7E2FF01310C29D0
:10193400F9D1002104220E4800F0F4FB0D4BE02203
:1019440083F806234022C3F880214FF4BE701A6046
:10195400FFF7B2FF084B4FF00042C3F80423012302
:1019640084F85830002010BD082010BD5811002004
:10197400AC11002000E100E00060004030B52F4CC5
:10198400231893F93020013256D18A78002A4AD09C
:10199400002354F8235001354FEA83023ED1251821
:1019A40002F1804202F5C04285F83030002544F847
:1019B4002350D2F810550B784C7825F498151B0455
:1019C400240525F4F85504F4801403F44033C2F8D4
:1019D400105523430402D2F8105504F4F854234359
:1019E4002B43C2F810354B78012B4FF0A0421ED187
:1019F4008340C2F8083500F5E0724FF0A04303219C
:101A040043F8221020FA01F30D4A00F007010120E7
:101A14008840D15C0843D054002030BD0133082BEA
:101A2400B7D1042030BDFE2283F83020DBE7012348
:101A34008340C2F80C35DEE7082030BD5811002081
:101A4400AC110020F0B5374D2B1893F93030002B32
:101A540065DA8E78C6F34006002E0BBF08230023F8
:101A64000C240824A34201D10420F0BD55F82370AE
:101A7400013740D12F185CB287F8304045F8232055
:101A840016B92B4483F848008B785A0713D4DE0721
:101A940033D5830003F1A043D3F8002722F00202D8
:101AA400C3F80027204EC20800F007070123BB40FB
:101AB400B75C3B43B3548B780A7813F0020325D008
:101AC400A30003F1804303F5C0430002D3F81015CB
:101AD40021F4473121F44071C3F810151204D3F8EE
:101AE400101500F4F85002F4403210430843C3F8D0
:101AF40010050020F0BD0133B4E74A7800F5E07327
:101B04004FF0A046920046F82320CBE7083C2C4433
:101B140094F8500040EA821284F85020E9E7082043
:101B2400F0BD00BF58110020AC11002038B5204C86
:101B3400251895F93020072A18DD224492F84830F8
:101B44009B09032B0DD14FF0A043D3F81035C340AC
:101B540013F0010F0CBF02210321BDE83840FFF749
:101B6400B7BE012B14BF03210221F6E7D3B2072B22
:101B74001CD8930003F1804303F5C043D3F8100548
:101B840040F00100C3F8100502F14000800080B26B
:101B9400FFF792FE51B195F9303054F823302BB150
:101BA400012303FA02F2034BC3F8042338BD00BF38
:101BB40058110020006000402DE9FF4700245A4AD4
:101BC4005A4E5B4D01940121A2F5C04052F8043BEA
:101BD400012B80B206D1D6F804330B4202D0FFF7B2
:101BE4006BFE0C43AA424FEA4101EDD1514B1B68F5
:101BF400012B0AD14FF4BE70FFF75EFE4FF0A043F5
:101C040044F00044D3F81035019314F0FF0F38D199
:101C1400002C80F2858000230293DFF81C914FF0A2
:101C2400FF33039301260024A0464FF0A04709EB9D
:101C3400080393F95020531C61D0D2B222F0C0059E
:101C4400E90804A8084402F0070310F804EC06FAB3
:101C540003F31EEA030F52D009EB050E92099EF915
:101C640030E059F82EA0BAF1000F26D1032A46D14C
:101C74000DF1080C1CF801E04EEA030E0CF801E02B
:101C84001DE02D4F01260025344210D0AB0003F196
:101C9400804303F5C043D3F81005D3F8101557F863
:101CA400253023B1C1F30141C0F304209847013525
:101CB400082D4FEA4606E7D1AAE7032AD8D005F54E
:101CC400E07110F80C0C57F821101842C1F30141CF
:101CD40005D0022913D1032A0BD1114604E00329AC
:101CE4000DD1032A05D102212846FFF7F1FD013465
:101CF400E4B2BAF1000F02D011462846D04708F1E9
:101D04000108B8F1040F92D154B14FF0A043019AE5
:101D1400D3F81035934203D00193029B039382E7D7
:101D240004B0BDE8F08700BF0061004000600040DF
:101D3400206100407C6100405811002007B5074B2A
:101D44000193022300934FF482720023044905484F
:101D5400FEF782FF03B05DF804FB00BFB41100205E
:101D6400A62100006D1D000008B50020FEF7DCFA76
:101D74004FF4FA70FFF778F9F7E7000007B5FFF7BB
:101D8400DBFC08B1FFF778FC0120FEF7DFFAFFF770
:101D9400BDFD08B1FFF770FC0023ADF800308DF8ED
:101DA40002306946012311208DF80130FFF7E6FD6A
:101DB40008B1FFF761FC022203238DF8062001A974
:101DC4000B4A8DF804300D208DF80530FFF73AFEEC
:101DD40008B1FFF751FC01210D20FFF7A7FE054ACA
:101DE400136943F004031361FFF714F8FEE700BF1F
:101DF400411D000000ED00E0094B1B78062B0CD1BF
:101E0400084B1B681A0708D1074B186800F0F0004C
:101E1400A0F130035842584170470020704700BF7A
:101E2400E00F00F0E40F00F0E80F00F00C4B1B781B
:101E3400062B10D10B4B1B681A070CD10A4B1868E0
:101E440000F0F003302B08D000F0E000A0F14003D4
:101E5400584258417047002070470120704700BF26
:101E6400E00F00F0E40F00F0E80F00F008B5FFF712
:101E7400DDFF28B17F4B804A1B68C3F30423136042
:101E8400FFF7BAFF10B17D4B7D4A1A60FFF7CEFF12
:101E940028B17C4B7C4A1B68C3F342331360FFF7C1
:101EA400ABFF20B1794AD36823F08073D360FFF786
:101EB400BDFF40B14FF080430022C3F80C21C3F8AA
:101EC4001021C3F83825FFF797FF10B1704B032298
:101ED4001A60FFF791FF40B16E4B05221A60012290
:101EE4009A6700229A603F225A606B4B1B78062B3C
:101EF40009D16A4B1B68190705D1694B1B6803F0AC
:101F0400F003502B67D0FFF791FF28B1654B664A69
:101F14001B6803F04F031360FFF788FF48B14FF0CD
:101F24008043D3F80024D20744BF6FF00102C3F802
:101F340000245E4B1B68062B04D15D4B1B68062BEB
:101F440000F091805B4AD2F8883043F47003C2F801
:101F54008830BFF34F8FBFF36F8F4FF01023D3F848
:101F64000022002A03DBD3F80432002B2FDA524B71
:101F74000122C3F80425D3F80024002AFBD04FF033
:101F840010221521C2F80012D3F80024002AFBD035
:101F94004FF010231522C3F80422474B1A46D3F8F6
:101FA40000140029FBD00021C3F80415D2F8003432
:101FB400002BFBD0BFF34F8F3E49404BCA6802F45D
:101FC400E0621343CB60BFF34F8F00BFFDE73C4B90
:101FD4003C4A1A6008BD4FF080523B4BD2F80414BF
:101FE400C3F82015D2F80814C3F82415D2F80C1439
:101FF400C3F82815D2F81014C3F82C15D2F8141409
:10200400C3F83015D2F81814C3F83415D2F81C14D8
:10201400C3F84015D2F82014C3F84415D2F8241498
:10202400C3F84815D2F82814C3F84C15D2F82C1468
:10203400C3F85015D2F83014C3F85415D2F8341438
:10204400C3F86015D2F83814C3F86415D2F83C14F8
:10205400C3F86815D2F84014C3F86C15D2F84424B8
:10206400C3F870254FE7194A136843F4806313607B
:1020740068E700BF240300104035014074C00740E6
:102084000DF0ADBA440200103C050040F0ED00E054
:10209400A005004010560040E00F00F0E40F00F0EF
:1020A400E80F00F058020010E40E00403001001068
:1020B4003401001000ED00E000E001400400FA05E6
:1020C400000000200090D00300C000403C170040F6
:1020D400844640EA010313F0030F18D18446202AF2
:1020E4000BD32DE9F007B1E8F807A0E8F807A2F14F
:1020F4002002202AF7D2BDE8F007042A07D351F8BA
:10210400043B40F8043BA2F10402042AF7D2002A5B
:1021140005D011F8013B00F8013B013AF9D16046C2
:10212400704700BF8446002A2DD010F0030F04D05E
:1021340000F8011B013A26D0F7E7C9B241EA0121B0
:1021440041EA0141202A12D3A2F120022DE9F00331
:102154000B460C460D460E460F4688468946A0E8B7
:10216400FA03203AFBD2BDE8F00320320BD0042A54
:1021740005D340F8041B043A05D0042AF9D200F828
:0C218400011B013AFBD16046704700BF10
:102190001112131449444C4500546D725100546D92
:0B21A0007220537663004C4544300071
:0421AC000090D003CC
:040000030000023DBA
:00000001FF
