:10000000000001203D020000950200009702000060
:10001000990200009B0200009D0200000000000009
:10002000000000000000000000000000A503000028
:10003000A102000000000000C5030000A5020000AE
:100040004D070000AB020000AD020000AF0200004F
:10005000B1020000B3020000DD070000B70200009B
:10006000B9020000BB020000BD020000BF02000098
:10007000C1020000C3020000C5020000C702000068
:10008000C902000025040000CD020000CF020000DC
:10009000D1020000D3020000D5020000D702000008
:1000A000D9020000DB020000DD020000DF020000D8
:1000B000E1020000E3020000A7020000A702000026
:1000C000E5020000E7020000E9020000EB02000088
:0C00D000ED020000EF020000F102000051
:1000DC00364937480A1A02D0072291438D463549D2
:1000EC0035480A1A06D00722914381F30988022267
:1000FC0082F3148831483249324A00F045F83248CC
:10010C003249334A00F040F832483349334A00F060
:10011C003BF833483349344A00F036F83348344915
:10012C00344A00F031F834483449354A00F02CF8A0
:10013C0034483549354A00F027F83548354900220E
:10014C0000F02DF834483549002200F028F83448E6
:10015C003449091A082903DB0022026004300160CB
:10016C00314A90471F482049884205D00268043024
:10017C0003B4904703BCF7E700208646EC4600200A
:10018C0000212A4A9047FEE7884207D0521A05D030
:10019C00037801300B700131013AF9D17047884274
:1001AC0002D002700130FAE7704700000000012015
:1001BC0000E000200000012000000120500C000095
:1001CC000000002004000020F4020000F4020000F3
:1001DC004C0C0000500C000000000020000000201F
:1001EC004C0C00004C0C00004C0C00004C0C0000A3
:1001FC004C0C00004C0C00004C0C00004C0C000093
:10020C00500C0000540C00000400002004000020DE
:10021C0004000020E4000020E4000020E4000020A2
:10022C00E4000020E42000206102000061090000CD
:10023C000F484FF00701884385460E4880470E480B
:10024C00016841F470010160BFF34F8FBFF36F8FF2
:10025C00FFF73EBF09480A490A4A884207D0521A9A
:10026C0005D0037801300B700131013AF9D1704798
:10027C0000000120E909000088ED00E04C0C0000B2
:10028C000000002000000020FEE7FEE7FEE7FEE78E
:10029C00FEE7FEE7FEE7FEE7FEE7FEE7FEE7FEE72A
:1002AC00FEE7FEE7FEE7FEE7FEE7FEE7FEE7FEE71A
:1002BC00FEE7FEE7FEE7FEE7FEE7FEE7FEE7FEE70A
:1002CC00FEE7FEE7FEE7FEE7FEE7FEE7FEE7FEE7FA
:1002DC00FEE7FEE7FEE7FEE7FEE7FEE7FEE7FEE7EA
:0802EC00FEE7FEE7FEE700BF9C
:1002F400044B1A5C012393404FF0A042C2F8083526
:10030400704700BF4C0C000008B50020FFF7F0FF59
:100314000120FFF7EDFF0220FFF7EAFF0320BDE80D
:100324000840FFF7E5BFC20708B501460CD54FF0FA
:10033400A0430322C3F84427C3F84827C3F84C2733
:10034400C3F85027FFF7E0FF8B070AD54FF0A0430F
:100354000C22C3F83427C3F83827C3F83C27C3F862
:10036400402708BD43684B609A688A609A68516068
:1003740099600368086101330360704741688268CB
:1003840003698A60826851605968884208BF5A606C
:10039400002202611A68013A1A6018687047000066
:1003A400064B19680868B0E8F04F80F30988BFF37A
:1003B4006F8F4FF0000080F3118870470400002015
:1003C400EFF30980BFF36F8F144B1A681EF0100F00
:1003D40008BF20ED108A20E9F04F10604DF8043D6D
:1003E4004FF0400080F31188BFF34F8FBFF36F8F3E
:1003F40000F0DEF84FF0000080F3118808BC1968A3
:100404000868B0E8F04F1EF0100F08BFB0EC108A77
:1004140080F30988BFF36F8F704700BF040000208A
:1004240073B5194B00221A601B680193019BEFF30B
:100434001186402383F31188144BD3F80445C3F881
:10044400002103F580731B680093009B00F034F8CF
:10045400241A24F07F44012C04D900F0D7F8022890
:1004640018BF0124002514F1FF3409D225B1084B2B
:100474004FF080525A6040BF86F3118802B070BDBD
:1004840000F020F80543EEE7401101400010014060
:1004940000ED00E0064A13681968064B19B94FF0DD
:1004A400FF321A6070471268D268D2685268F8E75F
:1004B4000800002058000020014B1868704700BF56
:1004C400640000202DE9F84F2E4B1B6823BB2E4BF4
:1004D4001D6801351D605DB92C4A2D4B11681868E3
:1004E40010602C4A1960136801331360FFF7D2FFC0
:1004F400294F3B689D424FF0000412D3DFF88C80F3
:10050400DFF8A490DFF8A4B0D8F800301B6883B9F2
:100514004FF0FF333B6004E0204A1368013313605B
:1005240000241F4B1B68002B18BF01242046BDE884
:10053400F88FD8F80030DB68DE6873689D42E9D331
:1005440006F1040A5046FFF719FFB36A1BB106F11E
:100554001800FFF713FFF26AD9F800100123934043
:1005640014200B4300FB02B05146C9F80030FFF7DA
:10057400F9FE0C4BF26A1B68DB6A9A4228BF01241D
:10058400C2E700BF500000206400002008000020E3
:100594000C0000205C000020580000204C000020CB
:1005A40068000020040000205400002010000020F7
:1005B400114B1A68114B30B512B101221A6030BDCB
:1005C4001A600F4B0F491B68B3FA83F3C3F11F037F
:1005D400142000FB03F28C18083265686D686560AE
:1005E4000A44954204BF6A68626000FB03135B68B7
:1005F400DA68054BE2E700BF5000002068000020E5
:10060400540000201000002004000020054B1B684B
:1006140033B1054B1B68002B0CBF02200020704730
:100624000120704760000020500000201FB5002109
:10063400039001AA44F201000191029100F004F830
:1006440005B05DF804FB000072B6094B1B68DB07BC
:1006540000D500BEBFF34F8F0649074BCA6802F4AA
:10066400E0621343CB60BFF34F8F00BFFDE700BFD1
:10067400F0ED00E000ED00E00400FA0538B5084CA8
:1006840004F108030546002818BF1C4623682BB153
:100694001A6822605B6828469847F7E738BD00BFB0
:1006A4007400002020B9054B01225A70FFF7E6BF01
:1006B400012802D1014A9070F8E770476C000020CD
:1006C40038B5094C23786BB908486360A36023618B
:1006D400E36000F017F8054600F022F801232370C8
:1006E400284638BD8525FBE76C000020A9060000DC
:1006F40000F180400023036082B003680193019BF2
:1007040002B07047054A13792BB9012110601171A9
:100714005371184670478520704700BF8000002041
:10072400084B1A68D20706D4E02283F8002301227A
:10073400C3F880211A604FF080430122C3F81825C2
:10074400704700BF00E100E0124B1B6810B573B1A5
:100754004FF48070FFF7CCFF4FF080430122C3F8C1
:1007640008230D4B587910B95A711B6898470B4BE5
:100774001B6873B14FF48270FFF7BAFF4FF08043E8
:100784000222C3F80823044B01201B68BDE8104073
:10079400184710BD00010040800000200401004003
:1007A40000F1804000F5C040002382B0036003687C
:1007B4000193019B02B07047800000F1A040D0F883
:1007C400003723F44033C0F80037D0F8003743EA49
:1007D4000141C0F8001770472DE9FF4700245A4A29
:1007E4005A4E5B4D01940121A2F5C04052F8043BDE
:1007F400012B80B206D1D6F804330B4202D0FFF7A6
:10080400CFFF0C43AA424FEA4101EDD1514B1B6883
:10081400012B0AD14FF4BE70FFF7C2FF4FF0A04383
:1008240044F00044D3F81035019314F0FF0F38D18D
:10083400002C80F2858000230293DFF81C914FF096
:10084400FF33039301260024A0464FF0A04709EB91
:10085400080393F95020531C61D0D2B222F0C00592
:10086400E90804A8084402F0070310F804EC06FAA7
:1008740003F31EEA030F52D009EB050E92099EF909
:1008840030E059F82EA0BAF1000F26D1032A46D140
:100894000DF1080C1CF801E04EEA030E0CF801E01F
:1008A4001DE02D4F01260025344210D0AB0003F18A
:1008B400804303F5C043D3F81005D3F8101557F857
:1008C400253023B1C1F30141C0F304209847013519
:1008D400082D4FEA4606E7D1AAE7032AD8D005F542
:1008E400E07110F80C0C57F821101842C1F30141C3
:1008F40005D0022913D1032A0BD1114604E00329A0
:100904000DD1032A05D102212846FFF755FF0134F2
:10091400E4B2BAF1000F02D011462846D04708F1DC
:100924000108B8F1040F92D154B14FF0A043019AD9
:10093400D3F81035934203D00193029B039382E7CB
:1009440004B0BDE8F08700BF0061004000600040D3
:10095400206100407C6100408800002008B5FFF75A
:10096400AFFE08B1FFF762FE0120FFF7DCFCFEE7F3
:10097400094B1B78062B0CD1084B1B681A0708D1AE
:10098400074B186800F0F000A0F1300358425841BA
:1009940070470020704700BFE00F00F0E40F00F044
:1009A400E80F00F00C4B1B78062B10D10B4B1B6887
:1009B4001A070CD10A4B186800F0F003302B08D04A
:1009C40000F0E000A0F14003584258417047002075
:1009D40070470120704700BFE00F00F0E40F00F003
:1009E400E80F00F008B5FFF7DDFF28B17F4B804A20
:1009F4001B68C3F304231360FFF7BAFF10B17D4BE8
:100A04007D4A1A60FFF7CEFF28B17C4B7C4A1B68F5
:100A1400C3F342331360FFF7ABFF20B1794AD368C5
:100A240023F08073D360FFF7BDFF40B14FF08043E4
:100A34000022C3F80C21C3F81021C3F83825FFF7AE
:100A440097FF10B1704B03221A60FFF791FF40B17A
:100A54006E4B05221A6001229A6700229A603F2297
:100A64005A606B4B1B78062B09D16A4B1B6819071C
:100A740005D1694B1B6803F0F003502B67D0FFF7D7
:100A840091FF28B1654B664A1B6803F04F0313605E
:100A9400FFF788FF48B14FF08043D3F80024D20712
:100AA40044BF6FF00102C3F800245E4B1B68062BA1
:100AB40004D15D4B1B68062B00F091805B4AD2F891
:100AC400883043F47003C2F88830BFF34F8FBFF30C
:100AD4006F8F4FF01023D3F80022002A03DBD3F8E2
:100AE4000432002B2FDA524B0122C3F80425D3F829
:100AF4000024002AFBD04FF010221521C2F8001266
:100B0400D3F80024002AFBD04FF010231522C3F899
:100B14000422474B1A46D3F800140029FBD00021C5
:100B2400C3F80415D2F80034002BFBD0BFF34F8F69
:100B34003E49404BCA6802F4E0621343CB60BFF302
:100B44004F8F00BFFDE73C4B3C4A1A6008BD4FF095
:100B540080523B4BD2F80414C3F82015D2F8081481
:100B6400C3F82415D2F80C14C3F82815D2F81014BD
:100B7400C3F82C15D2F81414C3F83015D2F818148D
:100B8400C3F83415D2F81C14C3F84015D2F8201455
:100B9400C3F84415D2F82414C3F84815D2F828141D
:100BA400C3F84C15D2F82C14C3F85015D2F83014ED
:100BB400C3F85415D2F83414C3F86015D2F83814B5
:100BC400C3F86415D2F83C14C3F86815D2F840147D
:100BD400C3F86C15D2F84424C3F870254FE7194ABA
:100BE400136843F48063136068E700BF24030010B4
:100BF4004035014074C007400DF0ADBA4402001006
:100C04003C050040F0ED00E0A00500401056004017
:100C1400E00F00F0E40F00F0E80F00F058020010BD
:100C2400E40E0040300100103401001000ED00E03B
:100C340000E001400400FA05000000200090D00309
:080C440000C000403C17004015
:040C4C00111213145A
:040C50000090D0033D
:040000030000023DBA
:00000001FF
