:10000000000001203D020000950200009702000060
:10001000990200009B0200009D0200000000000009
:100020000000000000000000000000009F0200002F
:10003000A102000000000000A3020000A5020000D1
:10004000A9020000AB020000E9160000AF020000A8
:10005000B1020000B3020000410A0000B702000034
:10006000B90200009D0C0000BD020000BF020000AC
:10007000C1020000C3020000C5020000C702000068
:10008000C902000091040000CD020000CF02000070
:100090002D050000D3020000D5020000D7020000A9
:1000A000D9020000DB020000DD020000DF020000D8
:1000B000E1020000E3020000A7020000A702000026
:1000C000E5020000E7020000E9020000EB02000088
:0C00D000ED020000EF020000F102000051
:1000DC00364937480A1A02D0072291438D463549D2
:1000EC0035480A1A06D00722914381F30988022267
:1000FC0082F3148831483249324A00F045F83248CC
:10010C003249334A00F040F832483349334A00F060
:10011C003BF833483349344A00F036F83348344915
:10012C00344A00F031F834483449354A00F02CF8A0
:10013C0034483549354A00F027F83548354900220E
:10014C0000F02DF834483549002200F028F83448E6
:10015C003449091A082903DB0022026004300160CB
:10016C00314A90471F482049884205D00268043024
:10017C0003B4904703BCF7E700208646EC4600200A
:10018C0000212A4A9047FEE7884207D0521A05D030
:10019C00037801300B700131013AF9D17047884274
:1001AC0002D002700130FAE7704700000000012015
:1001BC0000E000200000012000000120F0230000DE
:1001CC000000002018000020F4020000F4020000DF
:1001DC0060230000F023000000000020000000203D
:1001EC0060230000602300006023000060230000F7
:1001FC0060230000602300006023000060230000E7
:10020C00F023000008240000180000201800002033
:10021C00180000205004002050040020500400203E
:10022C0050040020502400206102000069170000D7
:10023C000F484FF00701884385460E4880470E480B
:10024C00016841F470010160BFF34F8FBFF36F8FF2
:10025C00FFF73EBF09480A490A4A884207D0521A9A
:10026C0005D0037801300B700131013AF9D1704798
:10027C00000001206D18000088ED00E060230000F4
:10028C000000002000000020FEE7FEE7FEE7FEE78E
:10029C00FEE7FEE7FEE7FEE7FEE7FEE7FEE7FEE72A
:1002AC00FEE7FEE7FEE7FEE7FEE7FEE7FEE7FEE71A
:1002BC00FEE7FEE7FEE7FEE7FEE7FEE7FEE7FEE70A
:1002CC00FEE7FEE7FEE7FEE7FEE7FEE7FEE7FEE7FA
:1002DC00FEE7FEE7FEE7FEE7FEE7FEE7FEE7FEE7EA
:0802EC00FEE7FEE7FEE700BF9C
:1002F400704770477047704701F07EBC044B1A5C2E
:10030400012393404FF0A042C2F80C35704700BF60
:1003140060230000044B1A5C012393404FF0A04279
:10032400C2F80835704700BF6023000008B50020FC
:10033400FFF7F0FF0120FFF7EDFF0220FFF7EAFFD0
:100344000320BDE80840FFF7E5BF0000074A4FF06F
:10035400A041105CD1F804350122824022EA030056
:100364001340C1F80805C1F80C357047602300003C
:10037400C20708B501460CD54FF0A0430322C3F8C9
:100384004427C3F84827C3F84C27C3F85027FFF77E
:10039400CDFF8B070AD54FF0A0430C22C3F83427B6
:1003A400C3F83827C3F83C27C3F8402708BD1FB556
:1003B4000021039001AA44F201000191029101F08D
:1003C400BBF905B05DF804FBB0F5A07F0AD1064B7C
:1003D4001B7813B9054B02221A70054B054A1B689A
:1003E40010681847704700BF18000020190000204B
:1003F4001C0000202000002007B5002302A90722CA
:100404008DF801308DF80230019309238DF8032013
:1004140001F8083D054A064800F0D2FB10B9054B27
:1004240001221A7003B05DF804FB00BFCD03000085
:100434006423000019000020024B4FF43C6043F099
:10044400010318477023000038B50C4B0C4C4FF4D3
:100454000032C3F8802001254FF48033C4F84833B8
:10046400C4F808336560FFF7E7FF064BA560002476
:100474001C60FFF7E1FF044B1C7038BD00E100E095
:10048400001001404001002031010020F8B51F4B4D
:100494001F491B680025C1F84051C1F84451C1F8F7
:1004A4004851C1F84C51C1F80051C1F804514BB343
:1004B400D1F8044517490968641A24F07F442F468B
:1004C4001A68A24209D8A41A15441A7CDE691AB122
:1004D4001F745A6998699047AEB90F4B0F4A19783F
:1004E40013788B4205D10133DBB2022B08BF002302
:1004F400137012780A4B43F822500A4B4FF48012BF
:10050400C3F80021F8BD3346DAE700BF44010020F8
:1005140000100140400100203C0100203D0100206A
:100524003401002000E100E02DE9F74F9C4A9D4989
:10053400137809789C4E994257D00133DBB2022BD1
:1005440008BF0023137099491278994B0F6853F828
:1005540022003B1823F07F4300220B6033681546CA
:100564001446964613B942B1336006E019688142D5
:1005740029D902B13360091A19604FF001083368B0
:100584008C4FDFF83CB200934FF00009002D61D08E
:100594002C46ED69854B60681A68831A23F07F4105
:1005A400854B9942A36800F2B7800B442360002373
:1005B4006360A360E361336801222274002B40F07E
:1005C400B3803460E2E7401A0C44D968C3F800E011
:1005D400D3F81CC031B13A1922F07F42DD615A6070
:1005E40099601D4663460122BCE70025A846C6E77C
:1005F400531CB978DBB299423B704FF0180303FBEC
:10060400027208BF3D7013799468022B1BD0032B30
:1006140011D0012B1ED1217CE1B9D3686360136929
:10062400A3605369E3609369A361644B1B78002B57
:10063400B0D06160AEE7002335681A46002D67D15B
:1006440043B1356006E0326813469246002B5AD116
:10065400002323743A787B789342C9D1B9F1000F0F
:1006640006D13368009A9A4202D1B8F1000F44D0FF
:100674003368002B73D0D3F800A0514D4B4BD5F801
:1006840004751C68DFF840813E1B98F8003026F0A2
:100694007F4603369BB94FF48033C5F84433C5F81D
:1006A4000433484B4FF400324FF00109C3F8802162
:1006B4001A60C5F80090FFF7BFFE88F80090B245B5
:1006C4002CBF5444A41924F07F44C5F84045D5F800
:1006D4000435DB1B23F07F43E41B033324F07F4406
:1006E400A3420AD9D5F80435C5F84035FFF7A4FE6E
:1006F400344B4FF40032C3F80021304B00221A70FF
:1007040003B0BDE8F08F9C422CD09A46DB699DE78C
:100714002A740123ED6991E7121A22F07F429A426A
:1007240034BF9B1A002341E7226819688A420BD818
:100734008A1A1A60E36144E7521AD969184661B902
:100744002260E161DC6121E7184619689142F3D324
:10075400891A196019460346F2E70B46F5E7FFF7D5
:1007640073FECAE754450DD1D369336053B90F48BA
:1007740001920121CBF808100360104B1970FFF7A8
:100784005BFE019AE1692368CAF81C1011B108687C
:1007940003440B6033689A4218BF4FF0010957E7CE
:1007A4003C0100203D0100204401002040010020C4
:1007B4003401002024000020FEFF7F0030010020CF
:1007C4000010014000E100E03101002072B6024A4D
:1007D400136801331360704748010020034A13680B
:1007E400013B136003B962B6704700BF48010020A3
:1007F400FFF7ECBFFFF7F2BF0648074A0378074943
:10080400D35C012213B1043000F08CBE0C3000F034
:1008140069BC00BF000000203802002074010020E1
:100824000648074A03780749D35C012213B1043010
:1008340000F032BE0C3000F009BC00BF0000002004
:10084400380200207501002037B50578012D04D049
:1008540035D3022D28D003B030BD43681F4C19781E
:10086400204600F0ACF878B11D4B01908DF8005093
:100874001B6868469847A168E368A2885B1A9A4295
:100884000ED3FFF7B9FFE6E7A268E3689A42F2D015
:1008940002AB134A03F8080D126818469047EAE7BA
:1008A400104B01221A70D6E7C36801938DF80050EB
:1008B400FFF7A2FF0A4B1B6868469847CBE70A4933
:1008C4000A4800F08EF810B9FFF7AAFFC3E702A8A0
:1008D400032300F8083D024B1B68EEE7500100209B
:1008E4004C010020600100207501002064010020FB
:1008F400F0B51F46234B89B006461A600C46002902
:100904003DD08A882048096800F04AF8002834D18C
:10091400A289A1681D4800F043F800282DD11C4D80
:100924000FCD6C460FC495E80F0084E80F0073697F
:100934000693337C174A18488DF81C70003318BF8F
:1009440001238DF81430737C002B14BF0E23002375
:100954008DF81530F3680293B368039333680193F9
:1009640069467368009300F07FFE30B90B4B187032
:100974003368013301D0FFF73FFF09B0F0BD072012
:10098400FBE700BF4C01002050010020640100205F
:10099400782300004D0800000000002060010020C2
:1009A40049B152B1531E1A4007D18260016083805D
:1009B400C260104670470E2070470920704710B57A
:1009C4008468C2688388121B934208D3C2681340A8
:1009D4000268D154C3680133C360002010BD0420F1
:1009E40010BD8268C3689A420AD082688388134023
:1009F4000268D35C0B708368013383600020704706
:100A04000520704700F1804000F5C040002382B00B
:100A1400036003680193019B02B07047800000F1FA
:100A2400A040D0F8003723F44033C0F80037D0F8A2
:100A3400003743EA0141C0F8001770472DE9FF472A
:100A440000245A4A5A4E5B4D01940121A2F5C0403C
:100A540052F8043B012B80B206D1D6F804330B4282
:100A640002D0FFF7CFFF0C43AA424FEA4101EDD178
:100A7400514B1B68012B0AD14FF4BE70FFF7C2FF24
:100A84004FF0A04344F00044D3F81035019314F020
:100A9400FF0F38D1002C80F2858000230293DFF809
:100AA4001C914FF0FF33039301260024A0464FF01E
:100AB400A04709EB080393F95020531C61D0D2B22C
:100AC40022F0C005E90804A8084402F0070310F85E
:100AD40004EC06FA03F31EEA030F52D009EB050EE9
:100AE40092099EF930E059F82EA0BAF1000F26D1F0
:100AF400032A46D10DF1080C1CF801E04EEA030E5E
:100B04000CF801E01DE02D4F01260025344210D0E1
:100B1400AB0003F1804303F5C043D3F81005D3F8C9
:100B2400101557F8253023B1C1F30141C0F3042057
:100B340098470135082D4FEA4606E7D1AAE7032A6C
:100B4400D8D005F5E07110F80C0C57F821101842B4
:100B5400C1F3014105D0022913D1032A0BD1114657
:100B640004E003290DD1032A05D102212846FFF709
:100B740055FF0134E4B2BAF1000F02D01146284601
:100B8400D04708F10108B8F1040F92D154B14FF0E5
:100B9400A043019AD3F81035934203D00193029BEA
:100BA400039382E704B0BDE8F08700BF0061004012
:100BB40000600040206100407C610040780100201A
:100BC400F7B50679324D0C237343EC18277A002FBE
:100BD4005CD1EA504B686360437950339B004FF417
:100BE400A0749C4202684BD1100B43B2CC78002B0A
:100BF400A8BF03F160474FEA53134FEA4414BABF46
:100C040000F00F0E234F07F561474FEA8303B4BF8B
:100C1400E4B2E4B203F16043B4BF07F80E4087F8CE
:100C2400004303F56143012400F01F0004FA00F0BF
:100C3400C3F880011860D2F804054B7820F0030053
:100C440003F003030343C2F80435D2F808058B7894
:100C540020F0030003F003030343C2F80835D2F87D
:100C640010050B7820F00F0103F00F030B43C2F8BB
:100C740010350C2303FB065500202C7203B0F0BD85
:100C8400175112590192019A0434AAE70820F5E792
:100C9400D401002014ED00E02DE9F341104C114F74
:100CA400114E00254FF48038236804F5E04080B2EB
:100CB4006BB1D7F8043308FA05F21A4207D00023BF
:100CC400236023680193019B716833689847013559
:100CD400042D04F10404E7D102B0BDE8F08100BFA3
:100CE4004091004000900040D40100200023435074
:100CF40082B043580193019B02B070470A4610B575
:100D04004FF48E71FFF7F2FF136A9168C95C136A9E
:100D140001331362C0F81C1510BD024608B54FF428
:100D240092710068FFF7E2FF4FF484711068FFF7D7
:100D3400DDFF136801221A6008BD8B690A4610B5ED
:100D44004FF4847123B9FFF7D1FFD0F8183510BDE3
:100D5400FFF7CCFF536AD168D0F81805C854536A1A
:100D64000133536210BD00001FB501238DF800301C
:100D7400044B02900191684693E80600904705B041
:100D84005DF804FBE001002030B54D4AD2F804338D
:100D940013F4007F85B015464FD0D2F82431002BD0
:100DA4004BD04FF492711046FFF7A0FF4FF401733C
:100DB400C2F80833434B93F8291009B90121516053
:100DC4003F4902228DF80020D1F88024C1F8802404
:100DD40003929A690292DA68019200229A61DA61B6
:100DE400684693E8060090473548D0F81C315BB15B
:100DF40034490A6A4B699A420A464CD291F828301F
:100E0400002B48D1FFF77AFF2D4AD2F8443193B131
:100E14004FF4A2711046FFF769FF2A4B93F829108B
:100E240009B1012111609A692AB100229A61586AB4
:100E3400D968FFF799FF05B030BDD5F804335B07D7
:100E4400D2D5D5F80831002BCED01E4C1C482146F3
:100E5400FFF773FF636AA2699A422346C4D1E26929
:100E640052B12369E168E3600023606AA261E3612F
:100E74006362FFF779FFB7E794F829200AB90122E2
:100E84006A600F4A4FF40171C2F8081300229A6194
:100E9400586AD968EDE74FF48E710948FFF726FFC9
:100EA40051690029B0D00023029191688DF8003077
:100EB40001915361684692E80A009847A4E700BF8D
:100EC40000200040E00100202DE9F8435B4B047949
:100ED40091462C2202FB0432064692F82A200D4643
:100EE4009846002A40F0A5805549006800F000FCAF
:100EF4000746002840F09F8029683368481C0BD0BF
:100F04004FF0A04001228A40C0F8082501F5E072A4
:100F14004FF0030E40F822E06868421C1FBF00F542
:100F2400E0724FF0A04E4FF0000C4EF822C0AA69B8
:100F340095F814E0C3F824256A7DBEF1010F4EEA4A
:100F44000202C3F86C25C3F81405C3F80C151DD1AF
:100F5400AA68511C1FBF02F5E0714FF0A0404FF08A
:100F6400000E40F821E0E968481C0BD04FF0A04E79
:100F740001208840CEF8080501F5E0704FF0030C1D
:100F84004EF820C0C3F80815C3F810252C2363437A
:100F940008EB0302C2F804902A6948F80320B9F167
:100FA400000F33D04FF48E7130682D7FFFF79EFE13
:100FB40030684FF4A271FFF799FE3268214BC2F8F2
:100FC4000433120B53B2002BA8BF03F160404FEA65
:100FD40053134FEA4511BABF1B4802F00F0500F541
:100FE40061404FEA8303B4BFC9B2C9B203F160439D
:100FF400B4BF415580F8001303F5614302F01F02AA
:10100400012101FA02F2C3F880211A603368042234
:10101400C3F800252C2303FB048300229A61DA61C0
:1010240083F829205A61012283F82A203846BDE832
:10103400F8830827FAE71127F8E700BFE00100204A
:101044008D0D00008000020014ED00E02DE9F8434E
:10105400234F06794FF02C0909FB06748046656915
:10106400002D37D16261A16025624FF48E71006852
:1010740084F82850FFF73AFED8F800000123836073
:101084002146FFF73BFE6368A14633BBD8F8005006
:10109400226A63699A4212D3D8F80030D3F81C212B
:1010A400002AFBD00122DA6000202C2303FB067601
:1010B40000237361BDE8F88394F8283043B9D5F868
:1010C4001C31002BF8D049462846FFF717FEDFE70E
:1010D4000F20EAE71120BDE8F8832846BDE8F8832D
:1010E400E00100202DE9F8433D4D07792C2303FB53
:1010F400075306465C6824B103684FF40170C3F8D3
:1011040008032C2303FB0753986940B3D8690028CC
:1011140062D024B133684FF40172C3F80423112060
:10112400BDE8F883002A44D1002C42D14146FFF7A0
:1011340004FED9F82430D9F818209A422DD8224632
:1011440037E05A6045E033684FF40172C3F8042372
:101154003FE00320BDE8F8830F20BDE8F8839A61DF
:10116400D9605862D8612C2404FB075393F82930C2
:101174001BB910B93046FFF7D0FD04FB07535B6879
:10118400002BE0D14FF4A2713068FFF7AFFD4FF0B0
:101194002C0907FB045809FB07593068D0F82421AF
:1011A400D0F80831D0F84441002BBBD10CB9002A47
:1011B400F3D02C2303FB07550023AB61002AC8D1CD
:1011C400002CC9D195F82910336801220029B8D020
:1011D4001A600020BDE8F8831961DA610120C2E7D2
:1011E400E00100200023435082B043580193019B47
:1011F40002B070471FB501238DF80030054B8DF800
:1012040008000191684693E80600904705B05DF830
:1012140004FB00BF0C0200207FB5384AD2F82461D9
:10122400002E49D010464FF49271FFF7DBFF0223E2
:101234008DF80030D2F88034C2F880340393D2F8A9
:101244003C358DF808302E4BDA68019200229A6101
:10125400DA61684693E806009047284AD2F8443198
:1012640073B14FF4A2711046FFF7BCFF244B996988
:1012740031B100219961D2F83C05D968FFF7BAFF72
:101284001E4AD2F82031ABB14FF490711046FFF7EB
:10129400A9FF1B4B596969B1D2F84C158DF8081098
:1012A400002299688DF8002001915A61684693E8FC
:1012B4000600904704B070BDD2F81031002BCCD09A
:1012C4004FF488711046FFF78DFF0D4BD2F83C05A3
:1012D40099698842C1D1DC696CB1D2F80052D968ED
:1012E40025F02005C2F800521A699C61DA60DE61BB
:1012F400FFF780FFB1E79C61D968F9E7002000405F
:101304000C0200202DE9F8435F4B06799146242214
:1013140002FB0632044692F820200D469846002A25
:1013240040F0AD805949006800F0E2F90746002812
:1013340040F0A78029682368481C0BD04FF0A040D8
:1013440001228A40C0F8082501F5E0724FF0030E2F
:1013540040F822E06868421C1FBF00F5E0724FF0BD
:10136400A04E4FF0000C4EF822C0AA6995F814E084
:10137400C3F824256A7DBEF1010F4EEA0202C3F8C8
:101384006C25C3F80C15C3F814051DD1AA68511CAB
:101394001FBF02F5E0714FF0A0404FF0000E40F87F
:1013A40021E0E968481C0BD04FF0A04E0120884092
:1013B400CEF8080501F5E0704FF0030C4EF820C09C
:1013C400C3F80815C3F810252423734308EB03025C
:1013D400C2F804902A6948F80320B9F1000F3DD0FF
:1013E4004FF4887120682D7FFFF7FCFE4FF4907155
:1013F4002068FFF7F7FE4FF492712068FFF7F2FEC2
:1014040020684FF4A271FFF7EDFE2268204BC2F86A
:101414000433120B53B2002BA8BF03F160404FEA10
:1014240053134FEA4511BABF1A4802F00F0500F5ED
:1014340061404FEA8303B4BFC9B2C9B203F1604348
:10144400B4BF415580F8001303F5614302F01F0255
:10145400012101FA02F2C3F880211A6023680822EC
:10146400C3F80025242303FB068300229A61DA6172
:101474005A61012283F820203846BDE8F883082702
:10148400FAE71127F8E700BF0C0200201D12000044
:101494001003020014ED00E001F06043B3F1005FBB
:1014A4002DE9F041074632D11D4B0679242505FB71
:1014B400063598466C696CBB6A61A96000684FF494
:1014C4009071FFF78FFE4FF4AC713868FFF78AFE16
:1014D4003B686A69A968C3F84415C3F84825012222
:1014E4009A606A68CAB9D3F82011D3F8582149B967
:1014F400002AF8D00F20242303FB068600237361FF
:10150400BDE8F081002A14BF0F200020F3E710206B
:10151400BDE8F0811120BDE8F0812046BDE8F081EE
:101524000C020020F8B501F06043B3F1005F0446FB
:101534000F4628D10379314E242101FB0361486809
:1015440020B121684FF40475C1F80853242101FB2C
:1015540003639D69CDB1D96900294AD020B12368BC
:101564004FF40472C3F804231120F8BDD3F8002209
:1015740042F02002C3F800221DE04FF40472C3F8C5
:1015840004230020F8BD1020F8BD9A61DF60DD61FE
:101594004FF488712068FFF725FE4FF4A27120688C
:1015A400FFF720FE2368C3F83475C3F83825002DEF
:1015B400DCD101221A602279242101FB02614968ED
:1015C4000029DAD1D3F81041D3F84411D3F8240117
:1015D40014B909B90028F5D0242303FB02660023BB
:1015E400984214BF032018469942B36118BF0F20D4
:1015F400F8BD1F61DA610125CAE700BF0C020020B3
:101604001FB503788DF8003043680193037A8DF891
:101614000830C3680393054A054B684653F82130E4
:1016240052F82110984705B05DF804FB3002002001
:10163400340200201FB503788DF80030436801930D
:1016440083688DF80830C3680393054A054B6846E0
:1016540053F8213052F82110984705B05DF804FB87
:101664003002002034020020F0B5194B067891F8BE
:101674001DC043F82620174B96460A6943F82620D6
:10168400154B03F806C00C4607460FCC89B06D46CF
:101694000FC594E80F0085E80F000496BCF1000F15
:1016A4000AD0BEF1000F0D4A694608BF0022381D5A
:1016B400FFF728FE09B0F0BDBEF1000F084A6946E5
:1016C40008BF002207F10C00FFF7FEFBF2E700BFA2
:1016D40034020020300200203802002005160000E9
:1016E40039160000014B1B68184700BF3C0200205C
:1016F40038B50A4B98420D460CD10020FFF778F814
:10170400074B1C7914B901221D601A710020FFF7E0
:1017140071F80CB9002038BD112038BD00200040FC
:101724003C0200200378022B02D14068FEF73FBE42
:10173400012BFAD07047000008B5094DFEF7F6FDFD
:1017440045F001054FF47A744FF47A40A847013C00
:10175400FAD12046FEF7FAFD0120FEF7F7FDF1E786
:10176400B023000030B58BB0FEF746FE08B1FEF79B
:101774001EFE1A4D0FCD04AC0FC495E80300184BA0
:10178400184A00934FF4807384E803000193029293
:101794000393154A0723694604A8FFF7A9F808B17B
:1017A400FEF705FE0120FEF7E3FD01200F4DFEF7D5
:1017B400A5FD4FF47A7445F001054FF47A40A8472B
:1017C400013CFAD10A480A4C00F0B6F9204600F070
:1017D400B3F920BF40BF20BFF8E700BF9823000043
:1017E400440200204403002029170000B023000015
:1017F400B6230000094B1B78062B0CD1084B1B6841
:101804001A0708D1074B186800F0F000A0F1300364
:101814005842584170470020704700BFE00F00F065
:10182400E40F00F0E80F00F00C4B1B78062B10D1EE
:101834000B4B1B681A070CD10A4B186800F0F00315
:10184400302B08D000F0E000A0F14003584258418A
:101854007047002070470120704700BFE00F00F080
:10186400E40F00F0E80F00F008B5FFF7DDFF28B142
:101874007F4B804A1B68C3F304231360FFF7BAFF4E
:1018840010B17D4B7D4A1A60FFF7CEFF28B17C4B27
:101894007C4A1B68C3F342331360FFF7ABFF20B1EC
:1018A400794AD36823F08073D360FFF7BDFF40B15A
:1018B4004FF080430022C3F80C21C3F81021C3F871
:1018C4003825FFF797FF10B1704B03221A60FFF71A
:1018D40091FF40B16E4B05221A6001229A670022E3
:1018E4009A603F225A606B4B1B78062B09D16A4BD6
:1018F4001B68190705D1694B1B6803F0F003502BD3
:1019040067D0FFF791FF28B1654B664A1B6803F067
:101914004F031360FFF788FF48B14FF08043D3F8BB
:101924000024D20744BF6FF00102C3F800245E4BC9
:101934001B68062B04D15D4B1B68062B00F09180BD
:101944005B4AD2F8883043F47003C2F88830BFF39E
:101954004F8FBFF36F8F4FF01023D3F80022002A6C
:1019640003DBD3F80432002B2FDA524B0122C3F8E5
:101974000425D3F80024002AFBD04FF010221521AF
:10198400C2F80012D3F80024002AFBD04FF0102331
:101994001522C3F80422474B1A46D3F80014002931
:1019A400FBD00021C3F80415D2F80034002BFBD07F
:1019B400BFF34F8F3E49404BCA6802F4E0621343C1
:1019C400CB60BFF34F8F00BFFDE73C4B3C4A1A602E
:1019D40008BD4FF080523B4BD2F80414C3F82015D5
:1019E400D2F80814C3F82415D2F80C14C3F8281537
:1019F400D2F81014C3F82C15D2F81414C3F8301507
:101A0400D2F81814C3F83415D2F81C14C3F84015CE
:101A1400D2F82014C3F84415D2F82414C3F8481596
:101A2400D2F82814C3F84C15D2F82C14C3F8501566
:101A3400D2F83014C3F85415D2F83414C3F860152E
:101A4400D2F83814C3F86415D2F83C14C3F86815F6
:101A5400D2F84014C3F86C15D2F84424C3F87025A6
:101A64004FE7194A136843F48063136068E700BFC3
:101A7400240300104035014074C007400DF0ADBA96
:101A8400440200103C050040F0ED00E0A0050040D9
:101A940010560040E00F00F0E40F00F0E80F00F0F3
:101AA40058020010E40E0040300100103401001010
:101AB40000ED00E000E001400400FA0514000020FD
:101AC4000090D00300C000403C17004038B50446E5
:101AD4000846A16841B1236862685D1C954208BF4D
:101AE4000020934208D2C854E3682BB1216862688D
:101AF400914201D22146984723680133236038BDBF
:101B040070B54C1E09D41646C5B229463046FFF7B7
:101B1400DDFF013CB4F1FF3FF7D170BD10F0100FB1
:101B240009D108B500F40070002814BF302020202B
:101B3400FFF7E6FF08BD70470FB410B586B008ABD9
:101B440053F8044B0593002303936FF0004302936F
:101B5400084B0493FEF7CCFB059A214601A800F03C
:101B640057F80446FEF7C5FB204606B0BDE8104012
:101B740004B07047FD02000003784BB151B1014439
:101B8400034613F8012F0AB18B42FAD1181A704791
:101B94000346FBE70346F9E700F1010110F0030FE8
:101BA40011D010F8012B002A23D010F0030F0AD013
:101BB40010F8012B002A1CD010F0030F03D010F8EA
:101BC400012B002A15D02DE970004FF001324FF09F
:101BD400803350F8044BA4EB020525EA04051D40AC
:101BE40000D1F6E7A0F1040070BC10F8012B002A24
:101BF400FBD1A0EB0100704710B504460146172045
:101C040000F094FB00280CBF20464FF0FF3010BDBD
:101C14002DE9F04F89B007468846039200230360FC
:101C2400DFF818A653E3002502E045F0400514460A
:101C3400224612F8010BA0F120033E2B00F29480FF
:101C440001A151F823F000BF2F1C00006D1D0000FE
:101C54006D1D0000491D00006D1D00006D1D00007C
:101C64006D1D00004F1D00006D1D00006D1D000066
:101C74006D1D00005B1D00006D1D0000611D000056
:101C84006D1D00006D1D0000671D00006D1D00002E
:101C94006D1D00006D1D00006D1D00006D1D000018
:101CA4006D1D00006D1D00006D1D00006D1D000008
:101CB4006D1D00006D1D00006D1D00006D1D0000F8
:101CC4006D1D00006D1D00006D1D00006D1D0000E8
:101CD4006D1D00006D1D00006D1D00006D1D0000D8
:101CE4006D1D00006D1D00006D1D00006D1D0000C8
:101CF4006D1D00006D1D00006D1D00006D1D0000B8
:101D04006D1D00006D1D00006D1D00006D1D0000A7
:101D14006D1D00006D1D00006D1D00006D1D000097
:101D24006D1D00006D1D00006D1D00006D1D000087
:101D34006D1D00006D1D00006D1D00006D1D000077
:101D4400551D000045F0800571E745F400456EE738
:101D540045F480556BE745F0200568E745F010052C
:101D640065E745F4007562E72A2827D0A0F130031F
:101D7400DBB2092B88BF00230CD8002303EB8303B9
:101D8400303800EB430312F8010BA0F13001C9B263
:101D94000929F3D923EAE3742E281BD000217428DF
:101DA4003FD07A283DD06C2800F0BC804C2800F04D
:101DB400BF80682800F0CC80904635E0039B191D55
:101DC40003911B68002BBCBF5B4245F010051078E3
:101DD400A21CDFE7561C10782A2819D0A0F1300382
:101DE400DBB2092B88BF00210ED8002101EB810151
:101DF400303800EB410116F8010BA0F13003DBB2DF
:101E0400092BF3D900290ADB45F480753246C6E76D
:101E1400039B191D03911968961C5078F2E732460A
:101E2400BDE702F101081078782800F28480DFE829
:101E340010F06D0282008200820082008200820023
:101E4400820082008200820082008200820082007E
:101E5400820082008200820082008200820082006E
:101E6400820082008200820082008200820082005E
:101E74008200820082008200820082009D00820033
:101E8400820082008200820082008200820082003E
:101E9400820082008200820082008200820082002E
:101EA400820082008200820082008200820082001E
:101EB400820082008200820082008200820082000E
:101EC40082008200820082008200820082008200FE
:101ED40082008200820082008200820082008200EE
:101EE400820003018200820082008200820082005C
:101EF4008200820082008200A200400182008200EF
:101F04008200820040018200820082008200BB00C5
:101F14002D01EC0082008200C7008200390182009A
:101F24008200050102F10108107845F001057BE704
:101F340045F001059046BD4B1E68002E00F0C78198
:101F440003AB0193009123462A463946B047BEE1CC
:101F54001078682804D002F1010845F0040563E70D
:101F640045F0080502F1020850785DE7252138465E
:101F7400FFF7ACFDABE1039B1A1D03921E78013CF5
:101F84003A4621462846FFF7C9FD31463846FFF751
:101F94009DFDA94619F0100F00F099813A4621469B
:101FA4002020FFF7ADFD92E115F0080F039B03F12C
:101FB400040203921B683A6814BF1A701A6086E11F
:101FC400039B1A1D03921868994B002808BF1846F2
:101FD400064625F4007915F4807F12D0FFF7CCFD76
:101FE4000546641B3A4621464846FFF797FD002DF7
:101FF400D0D016F8011B3846FFF768FD013DF8D133
:10200400C8E7FFF7C9FD0546EBE7039B1A1D0392DA
:102014001A6805F08003002B0CBF0026232645F424
:1020240080750821002A00F02E8105AB4FF00009CD
:1020340005F400508C46D4E045F4005515F0800FAB
:1020440022D043F2580343F27806782818BF1E467C
:1020540015F4807F01D025F4007515F4804F36D037
:10206400039B1A1D03921A6815F0040F27D012B2AD
:10207400002A29DB15F0200F40F0878005F040038B
:10208400002B18BF20262AE00026E1E705F0800394
:10209400002B0CBF0026302615F4807FDDD025F4FC
:1020A4000075DAE715F4807F07D025F40075002663
:1020B400D3E745F480450026CFE70026CDE715F0A9
:1020C400080F18BFD2B2D3E752422D2607E0039B74
:1020D4001A1D03921A6815F0040F51D092B215F428
:1020E400807F14BF25F400750121A0F15803202B33
:1020F40000F2C68001A050F823F000BF29200000A0
:10210400852200008522000085220000852200002F
:10211400852200008522000085220000852200001F
:10212400852200008522000085220000B3210000E2
:1021340085220000852200008522000085220000FF
:10214400B3210000852200008522000085220000C2
:102154008522000085220000932100002920000030
:1021640085220000852200008522000085220000CF
:10217400B3210000852200008522000029200000F0
:1021840015F0080FABD0D2B2A9E72B26A7E74FF082
:1021940000098AB305A84FF0000902F007033033A1
:1021A40000F8013B09F10109D208F6D124E04FF00F
:1021B40000090AB34FF0000905F4004E4FF02C0C4F
:1021C400934673468E4619464BE002F00F0E1949AA
:1021D40011F80EE083F800E009F101090133120956
:1021E40009D00028F1D002F00F0E134911F80EE0C7
:1021F40083F800E0F0E76146A1EB090121EAE17B05
:10220400A4EB0B04A4EB0904FF2E88BF04F1FF34F4
:10221400002E7ED0013C15F4007F7DD0FF2E36D8F1
:10222400F1B23846FFF752FC38E000BF4404002006
:10223400E8230000C8230000D8230000CDCCCCCC78
:1022440008AB03EB0900AAFB0B23DB0803EB8302B7
:10225400ABEB4202303200F80C2C09F101099B4629
:1022640063B10029ECD009F00303032BE8D108ABD8
:102274004B4403F80CCC09F10109E1E77146BBE7D3
:102284004FF00009B8E74FF00009B5E70024C6F3A2
:1022940007213846FFF71AFC002EC1D13A462146E1
:1022A4002846FFF73BFC3A4659463020FFF728FC06
:1022B400B9F1010F08D405AEB14419F8011D38462F
:1022C400FFF704FC4E45F8D115F0100F0CD108F1BE
:1022D400010498F8001069B125293FF4A4AC3846EC
:1022E400FFF7F4FBA046F2E73A4621462020FFF729
:1022F40007FCECE7BB682BB13A6879688A423CBFBB
:1023040000219954386809B0BDE8F08F4FF0FF30D0
:10231400F9E715F4007FC1D13A4621462846FFF774
:10232400FDFBFF2EB2D80024B6E700BF38B5044643
:102334000D46FDF7DFFF074B1D6044F08004064B9C
:102344001C601A461368002BFCD1FDF7D4FF014B27
:0C235400186838BD4C040020480400202C
:10236000111213140090004000040000000000004F
:102370000338FDD870470000FFFFFFFFFFFFFFFF9E
:10238000FFFFFFFFFFFFFFFF000000000000000055
:102390000000D60107010000080000000600000050
:1023A00005000000070000000100000000E0D70168
:1023B0000338FDD870470D0A5541525420776F728B
:1023C0006B732E0D0A00000030313233343536374E
:1023D000383961626364656630313233343536379B
:1023E0003839414243444546286E756C6C290000DB
:1023F000000000000020004000000000002000401D
:08240000000000000090D00371
:040000030000023DBA
:00000001FF
