:10000000000001203D020000950200009702000060
:10001000990200009B0200009D0200000000000009
:100020000000000000000000000000009F0200002F
:10003000A102000000000000A3020000A5020000D1
:10004000A9020000AB020000AD020000AF020000F8
:10005000B1020000B3020000B9080000B7020000BE
:10006000B9020000A90B0000BD020000BF020000A1
:10007000C1020000C3020000C5020000C702000068
:10008000C902000041050000CD020000CF020000BF
:10009000DD050000D3020000D5020000D7020000F9
:1000A000D9020000DB020000DD020000DF020000D8
:1000B000E1020000E3020000A7020000A702000026
:1000C000E5020000E7020000E9020000EB02000088
:0C00D000ED020000EF020000F102000051
:1000DC00364937480A1A02D0072291438D463549D2
:1000EC0035480A1A06D00722914381F30988022267
:1000FC0082F3148831483249324A00F045F83248CC
:10010C003249334A00F040F832483349334A00F060
:10011C003BF833483349344A00F036F83348344915
:10012C00344A00F031F834483449354A00F02CF8A0
:10013C0034483549354A00F027F83548354900220E
:10014C0000F02DF834483549002200F028F83448E6
:10015C003449091A082903DB0022026004300160CB
:10016C00314A90471F482049884205D00268043024
:10017C0003B4904703BCF7E700208646EC4600200A
:10018C0000212A4A9047FEE7884207D0521A05D030
:10019C00037801300B700131013AF9D17047884274
:1001AC0002D002700130FAE7704700000000012015
:1001BC0000E0002000000120000001204810000099
:1001CC00000000200C000020F4020000F4020000EB
:1001DC001C1000004810000000000020000000204F
:1001EC001C1000001C1000001C1000001C10000053
:1001FC001C1000001C1000001C1000001C10000043
:10020C0046100000541000000C0000200C000020D0
:10021C000C000020A4010020A4010020A401002057
:10022C00A4010020A421002061020000850C000024
:10023C000F484FF00701884385460E4880470E480B
:10024C00016841F470010160BFF34F8FBFF36F8FF2
:10025C00FFF73EBF09480A490A4A884207D0521A9A
:10026C0005D0037801300B700131013AF9D1704798
:10027C0000000120B90D000088ED00E01C1000000A
:10028C000000002000000020FEE7FEE7FEE7FEE78E
:10029C00FEE7FEE7FEE7FEE7FEE7FEE7FEE7FEE72A
:1002AC00FEE7FEE7FEE7FEE7FEE7FEE7FEE7FEE71A
:1002BC00FEE7FEE7FEE7FEE7FEE7FEE7FEE7FEE70A
:1002CC00FEE7FEE7FEE7FEE7FEE7FEE7FEE7FEE7FA
:1002DC00FEE7FEE7FEE7FEE7FEE7FEE7FEE7FEE7EA
:0802EC00FEE7FEE7FEE700BF9C
:1002F400044B1A5C012393404FF0A042C2F80C3522
:10030400704700BF1C100000044B1A5C012393408B
:100314004FF0A042C2F80835704700BF1C1000001F
:1003240008B50020FFF7F0FF0120FFF7EDFF0220E2
:10033400FFF7EAFF0320BDE80840FFF7E5BF000030
:10034400074A4FF0A041105CD1F8043501228240E5
:1003540022EA03001340C1F80805C1F80C357047C0
:100364001C100000C20708B501460CD54FF0A0438D
:100374000322C3F84427C3F84827C3F84C27C3F81B
:100384005027FFF7CDFF8B070AD54FF0A0430C226F
:10039400C3F83427C3F83827C3F83C27C3F84027E9
:1003A40008BD1FB50021039001AA44F20100019188
:1003B400029100F04FFC05B05DF804FBB0F5A07F9E
:1003C4000AD1064B1B7813B9054B02221A70054B50
:1003D400054A1B6810681847704700BF0C000020CE
:1003E4000D000020100000201400002007B5002399
:1003F40002A907228DF801308DF8023001930923F8
:100404008DF8032001F8083D054A064800F014FB66
:1004140010B9054B01221A7003B05DF804FB00BF4C
:10042400C1030000201000000D00002010B5054C91
:100434002378032B04D1044800F07CFB02232370AF
:10044400002010BD0D000020201000002DE9F7430E
:100454000546904699460F46002935D001282ED0EE
:10046400002833D14FF480761A4C237883B3032BBE
:1004740004D1FFF7DBFF08B1FFF793FF2378022BCA
:1004840002D1154800F05AFB144B13481D70144B4D
:100494001F60144BC3F80090012300934246334677
:1004A400002100F068FB23780B48022B09D100F0EF
:1004B4003DFB03232370002003B0BDE8F083064610
:1004C400D2E700F025FBF4E70E20F5E70720F3E779
:1004D4000820F1E70D000020201000000C0000208F
:1004E4001000002014000020024B4FF43C6043F045
:1004F400010318473010000038B50C4B0C4C4FF476
:100504000032C3F8802001254FF48033C4F8483307
:10051400C4F808336560FFF7E7FF064BA5600024C5
:100524001C60FFF7E1FF044B1C7038BD00E100E0E4
:10053400001001403401002025010020F8B51F4BB4
:100544001F491B680025C1F84051C1F84451C1F846
:100554004851C1F84C51C1F80051C1F804514BB392
:10056400D1F8044517490968641A24F07F442F46DA
:100574001A68A24209D8A41A15441A7CDE691AB171
:100584001F745A6998699047AEB90F4B0F4A19788E
:1005940013788B4205D10133DBB2022B08BF002351
:1005A400137012780A4B43F822500A4B4FF480120E
:1005B400C3F80021F8BD3346DAE700BF3801002054
:1005C40000100140340100203001002031010020DE
:1005D4002801002000E100E02DE9F74F9C4A9D49E5
:1005E400137809789C4E994257D00133DBB2022B21
:1005F40008BF0023137099491278994B0F6853F878
:1006040022003B1823F07F4300220B603368154619
:100614001446964613B942B1336006E01968814224
:1006240029D902B13360091A19604FF001083368FF
:100634008C4FDFF83CB200934FF00009002D61D0DD
:100644002C46ED69854B60681A68831A23F07F4154
:10065400854B9942A36800F2B7800B4423600023C2
:100664006360A360E361336801222274002B40F0CD
:10067400B3803460E2E7401A0C44D968C3F800E060
:10068400D3F81CC031B13A1922F07F42DD615A60BF
:1006940099601D4663460122BCE70025A846C6E7CB
:1006A400531CB978DBB299423B704FF0180303FB3B
:1006B400027208BF3D7013799468022B1BD0032B80
:1006C40011D0012B1ED1217CE1B9D3686360136979
:1006D400A3605369E3609369A361644B1B78002BA7
:1006E400B0D06160AEE7002335681A46002D67D1AB
:1006F40043B1356006E0326813469246002B5AD166
:10070400002323743A787B789342C9D1B9F1000F5E
:1007140006D13368009A9A4202D1B8F1000F44D04E
:100724003368002B73D0D3F800A0514D4B4BD5F850
:1007340004751C68DFF840813E1B98F8003026F0F1
:100744007F4603369BB94FF48033C5F84433C5F86C
:100754000433484B4FF400324FF00109C3F88021B1
:100764001A60C5F80090FFF7BFFE88F80090B24504
:100774002CBF5444A41924F07F44C5F84045D5F84F
:100784000435DB1B23F07F43E41B033324F07F4455
:10079400A3420AD9D5F80435C5F84035FFF7A4FEBD
:1007A400344B4FF40032C3F80021304B00221A704E
:1007B40003B0BDE8F08F9C422CD09A46DB699DE7DC
:1007C4002A740123ED6991E7121A22F07F429A42BA
:1007D40034BF9B1A002341E7226819688A420BD868
:1007E4008A1A1A60E36144E7521AD969184661B952
:1007F4002260E161DC6121E7184619689142F3D374
:10080400891A196019460346F2E70B46F5E7FFF724
:1008140073FECAE754450DD1D369336053B90F4809
:1008240001920121CBF808100360104B1970FFF7F7
:100834005BFE019AE1692368CAF81C1011B10868CB
:1008440003440B6033689A4218BF4FF0010957E71D
:100854003001002031010020380100203401002043
:100864002801002018000020FEFF7F002401002042
:100874000010014000E100E02501002000F180406B
:1008840000F5C040002382B0036003680193019B1C
:1008940002B07047800000F1A040D0F8003723F484
:1008A4004033C0F80037D0F8003743EA0141C0F8BC
:1008B400001770472DE9FF4700245A4A5A4E5B4DF2
:1008C40001940121A2F5C04052F8043B012B80B2EF
:1008D40006D1D6F804330B4202D0FFF7CFFF0C4306
:1008E400AA424FEA4101EDD1514B1B68012B0AD1B9
:1008F4004FF4BE70FFF7C2FF4FF0A04344F0004432
:10090400D3F81035019314F0FF0F38D1002C80F286
:10091400858000230293DFF81C914FF0FF3303938B
:1009240001260024A0464FF0A04709EB080393F9E1
:100934005020531C61D0D2B222F0C005E90804A8AB
:10094400084402F0070310F804EC06FA03F31EEA65
:10095400030F52D009EB050E92099EF930E059F8C5
:100964002EA0BAF1000F26D1032A46D10DF1080CAE
:100974001CF801E04EEA030E0CF801E01DE02D4FD7
:1009840001260025344210D0AB0003F1804303F567
:10099400C043D3F81005D3F8101557F8253023B108
:1009A400C1F30141C0F3042098470135082D4FEAF3
:1009B4004606E7D1AAE7032AD8D005F5E07110F876
:1009C4000C0C57F821101842C1F3014105D002293B
:1009D40013D1032A0BD1114604E003290DD1032AB4
:1009E40005D102212846FFF755FF0134E4B2BAF1DC
:1009F400000F02D011462846D04708F10108B8F18B
:100A0400040F92D154B14FF0A043019AD3F810359A
:100A1400934203D00193029B039382E704B0BDE8A1
:100A2400F08700BF0061004000600040206100408A
:100A34007C6100403C010020F7B50679324D0C235F
:100A44007343EC18277A002F5CD1EA504B6863603B
:100A5400437950339B004FF4A0749C4202684BD1FD
:100A6400100B43B2CC78002BA8BF03F160474FEAC8
:100A740053134FEA4414BABF00F00F0E234F07F587
:100A840061474FEA8303B4BFE4B2E4B203F16043C5
:100A9400B4BF07F80E4087F8004303F5614301240F
:100AA40000F01F0004FA00F0C3F880011860D2F8C7
:100AB40004054B7820F0030003F003030343C2F85A
:100AC4000435D2F808058B7820F0030003F0030303
:100AD4000343C2F80835D2F810050B7820F00F0153
:100AE40003F00F030B43C2F810350C2303FB065528
:100AF40000202C7203B0F0BD175112590192019AD3
:100B04000434AAE70820F5E79801002014ED00E07A
:100B1400036801221A600379034A0C2101FB0323B1
:100B240002221A72704700BF980100200368012254
:100B34001A607047036801225A60704703680122F3
:100B4400DA60704737B54FF480348C4000687BB16D
:100B54008B0003F5A0730025C550C3580193019B76
:100B6400C0F8044301F5A87140F8212003B030BD5A
:100B7400C0F80843F6E7F0B404689DF81070D4F8A0
:100B8400005240F201168E4025EA0605C4F80052D0
:100B9400D4F800522B43C4F800323B46F0BCFFF7B4
:100BA400D1BF00002DE9F341104C114F114E002527
:100BB4004FF48038236804F5E04080B26BB1D7F875
:100BC400043308FA05F21A4207D00023236023688D
:100BD4000193019B7168336898470135042D04F132
:100BE4000404E7D102B0BDE8F08100BF40910040A9
:100BF4000090004098010020024A136801331360FA
:100C0400704700BF04000020084A094908B513686A
:100C140001331360002347F612221846FFF716FC2F
:100C240018B1BDE80840FFF7BCBB08BD00000020B8
:100C34000D0C000008B547F61222002304490120D8
:100C4400FFF704FC18B1BDE80840FFF7AABB08BDD4
:100C5400FD0B000008B5094DFFF762FB45F00105E7
:100C64004FF47A744FF47A40A847013CFAD12046F5
:100C7400FFF766FB0120FFF763FBF1E7401000007C
:100C8400F8B5FFF7B3FB08B1FFF78BFB0120FFF7C3
:100C940069FB0120264DFFF72BFB4FF47A7445F0D6
:100CA40001054FF47A40A847013CFAD12046FFF7EA
:100CB4001FFB204C204EFFF7BDFF254622683C2336
:100CC400B2FBF3F003FB1020A8B9FFF71DFBFFF7FD
:100CD400ADFB08B1FFF765FB002347F6122231464E
:100CE4000120FFF7B3FB08B1FFF75BFB0220FFF71E
:100CF400FFFA00232B60114F3A680523B2FBF3F38C
:100D040003EB83039A420ED10220FFF7FDFAFFF7AB
:100D14008DFB08B1FFF745FB0020FFF7E9FAFFF769
:100D240089FF00233B6020BF40BF20BFC6E700BF50
:100D340040100000040000200D0C00000000002002
:100D4400094B1B78062B0CD1084B1B681A0708D1DA
:100D5400074B186800F0F000A0F1300358425841E6
:100D640070470020704700BFE00F00F0E40F00F070
:100D7400E80F00F00C4B1B78062B10D10B4B1B68B3
:100D84001A070CD10A4B186800F0F003302B08D076
:100D940000F0E000A0F140035842584170470020A1
:100DA40070470120704700BFE00F00F0E40F00F02F
:100DB400E80F00F008B5FFF7DDFF28B17F4B804A4C
:100DC4001B68C3F304231360FFF7BAFF10B17D4B14
:100DD4007D4A1A60FFF7CEFF28B17C4B7C4A1B6822
:100DE400C3F342331360FFF7ABFF20B1794AD368F2
:100DF40023F08073D360FFF7BDFF40B14FF0804311
:100E04000022C3F80C21C3F81021C3F83825FFF7DA
:100E140097FF10B1704B03221A60FFF791FF40B1A6
:100E24006E4B05221A6001229A6700229A603F22C3
:100E34005A606B4B1B78062B09D16A4B1B68190748
:100E440005D1694B1B6803F0F003502B67D0FFF703
:100E540091FF28B1654B664A1B6803F04F0313608A
:100E6400FFF788FF48B14FF08043D3F80024D2073E
:100E740044BF6FF00102C3F800245E4B1B68062BCD
:100E840004D15D4B1B68062B00F091805B4AD2F8BD
:100E9400883043F47003C2F88830BFF34F8FBFF338
:100EA4006F8F4FF01023D3F80022002A03DBD3F80E
:100EB4000432002B2FDA524B0122C3F80425D3F855
:100EC4000024002AFBD04FF010221521C2F8001292
:100ED400D3F80024002AFBD04FF010231522C3F8C6
:100EE4000422474B1A46D3F800140029FBD00021F2
:100EF400C3F80415D2F80034002BFBD0BFF34F8F96
:100F04003E49404BCA6802F4E0621343CB60BFF32E
:100F14004F8F00BFFDE73C4B3C4A1A6008BD4FF0C1
:100F240080523B4BD2F80414C3F82015D2F80814AD
:100F3400C3F82415D2F80C14C3F82815D2F81014E9
:100F4400C3F82C15D2F81414C3F83015D2F81814B9
:100F5400C3F83415D2F81C14C3F84015D2F8201481
:100F6400C3F84415D2F82414C3F84815D2F8281449
:100F7400C3F84C15D2F82C14C3F85015D2F8301419
:100F8400C3F85415D2F83414C3F86015D2F83814E1
:100F9400C3F86415D2F83C14C3F86815D2F84014A9
:100FA400C3F86C15D2F84424C3F870254FE7194AE6
:100FB400136843F48063136068E700BF24030010E0
:100FC4004035014074C007400DF0ADBA4402001032
:100FD4003C050040F0ED00E0A00500401056004044
:100FE400E00F00F0E40F00F0E80F00F058020010EA
:100FF400E40E0040300100103401001000ED00E068
:1010040000E001400400FA05080000200090D0032D
:0810140000C000403C17004041
:10101C0011121314009000400004000000000000A6
:10102C00000000000338FDD87047000000000000ED
:0A103C00000000000338FDD87047E3
:0C10480001000000010000000090D00337
:040000030000023DBA
:00000001FF
